{
	"Hookathon.sol": {
		"ExclusiveAccessPools": {
			"abi": [
				{
					"inputs": [
						{
							"internalType": "address",
							"name": "_pancakeRouterAddress",
							"type": "address"
						}
					],
					"stateMutability": "nonpayable",
					"type": "constructor"
				},
				{
					"inputs": [
						{
							"internalType": "address",
							"name": "tokenA",
							"type": "address"
						},
						{
							"internalType": "address",
							"name": "tokenB",
							"type": "address"
						},
						{
							"internalType": "uint256",
							"name": "amountADesired",
							"type": "uint256"
						},
						{
							"internalType": "uint256",
							"name": "amountBDesired",
							"type": "uint256"
						}
					],
					"name": "addLiquidity",
					"outputs": [],
					"stateMutability": "nonpayable",
					"type": "function"
				},
				{
					"inputs": [],
					"name": "createExclusivePool",
					"outputs": [],
					"stateMutability": "nonpayable",
					"type": "function"
				},
				{
					"inputs": [
						{
							"internalType": "uint256",
							"name": "",
							"type": "uint256"
						}
					],
					"name": "exclusivePools",
					"outputs": [
						{
							"internalType": "address",
							"name": "",
							"type": "address"
						}
					],
					"stateMutability": "view",
					"type": "function"
				},
				{
					"inputs": [],
					"name": "minTradeCount",
					"outputs": [
						{
							"internalType": "uint256",
							"name": "",
							"type": "uint256"
						}
					],
					"stateMutability": "view",
					"type": "function"
				},
				{
					"inputs": [],
					"name": "minVolume",
					"outputs": [
						{
							"internalType": "uint256",
							"name": "",
							"type": "uint256"
						}
					],
					"stateMutability": "view",
					"type": "function"
				},
				{
					"inputs": [],
					"name": "pancakeRouterAddress",
					"outputs": [
						{
							"internalType": "address",
							"name": "",
							"type": "address"
						}
					],
					"stateMutability": "view",
					"type": "function"
				},
				{
					"inputs": [
						{
							"internalType": "uint256",
							"name": "volume",
							"type": "uint256"
						}
					],
					"name": "registerTrade",
					"outputs": [],
					"stateMutability": "nonpayable",
					"type": "function"
				},
				{
					"inputs": [
						{
							"internalType": "address",
							"name": "",
							"type": "address"
						}
					],
					"name": "users",
					"outputs": [
						{
							"internalType": "uint256",
							"name": "tradeCount",
							"type": "uint256"
						},
						{
							"internalType": "uint256",
							"name": "totalVolume",
							"type": "uint256"
						},
						{
							"internalType": "bool",
							"name": "eligible",
							"type": "bool"
						}
					],
					"stateMutability": "view",
					"type": "function"
				}
			],
			"devdoc": {
				"kind": "dev",
				"methods": {},
				"version": 1
			},
			"evm": {
				"assembly": "    /* \"Hookathon.sol\":397:1971  contract ExclusiveAccessPools {... */\n  mstore(0x40, 0x80)\n    /* \"Hookathon.sol\":770:772  10 */\n  0x0a\n    /* \"Hookathon.sol\":739:772  uint256 public minTradeCount = 10 */\n  0x04\n  sstore\n    /* \"Hookathon.sol\":806:813  1 ether */\n  0x0de0b6b3a7640000\n    /* \"Hookathon.sol\":779:813  uint256 public minVolume = 1 ether */\n  0x05\n  sstore\n    /* \"Hookathon.sol\":831:1001  constructor(address _pancakeRouterAddress) {... */\n  callvalue\n  dup1\n  iszero\n  tag_1\n  jumpi\n  revert(0x00, 0x00)\ntag_1:\n  pop\n  mload(0x40)\n  sub(codesize, bytecodeSize)\n  dup1\n  bytecodeSize\n  dup4\n  codecopy\n  dup2\n  dup2\n  add\n  0x40\n  mstore\n  dup2\n  add\n  swap1\n  tag_2\n  swap2\n  swap1\n  tag_3\n  jump\t// in\ntag_2:\n    /* \"Hookathon.sol\":908:929  _pancakeRouterAddress */\n  dup1\n    /* \"Hookathon.sol\":885:905  pancakeRouterAddress */\n  0x02\n  0x00\n    /* \"Hookathon.sol\":885:929  pancakeRouterAddress = _pancakeRouterAddress */\n  0x0100\n  exp\n  dup2\n  sload\n  dup2\n  0xffffffffffffffffffffffffffffffffffffffff\n  mul\n  not\n  and\n  swap1\n  dup4\n  0xffffffffffffffffffffffffffffffffffffffff\n  and\n  mul\n  or\n  swap1\n  sstore\n  pop\n    /* \"Hookathon.sol\":971:992  _pancakeRouterAddress */\n  dup1\n    /* \"Hookathon.sol\":940:953  pancakeRouter */\n  0x03\n  0x00\n    /* \"Hookathon.sol\":940:993  pancakeRouter = IPancakeRouter(_pancakeRouterAddress) */\n  0x0100\n  exp\n  dup2\n  sload\n  dup2\n  0xffffffffffffffffffffffffffffffffffffffff\n  mul\n  not\n  and\n  swap1\n  dup4\n  0xffffffffffffffffffffffffffffffffffffffff\n  and\n  mul\n  or\n  swap1\n  sstore\n  pop\n    /* \"Hookathon.sol\":831:1001  constructor(address _pancakeRouterAddress) {... */\n  pop\n    /* \"Hookathon.sol\":397:1971  contract ExclusiveAccessPools {... */\n  jump(tag_6)\n    /* \"#utility.yul\":88:205   */\ntag_8:\n    /* \"#utility.yul\":197:198   */\n  0x00\n    /* \"#utility.yul\":194:195   */\n  0x00\n    /* \"#utility.yul\":187:199   */\n  revert\n    /* \"#utility.yul\":334:460   */\ntag_10:\n    /* \"#utility.yul\":371:378   */\n  0x00\n    /* \"#utility.yul\":411:453   */\n  0xffffffffffffffffffffffffffffffffffffffff\n    /* \"#utility.yul\":404:409   */\n  dup3\n    /* \"#utility.yul\":400:454   */\n  and\n    /* \"#utility.yul\":389:454   */\n  swap1\n  pop\n    /* \"#utility.yul\":334:460   */\n  swap2\n  swap1\n  pop\n  jump\t// out\n    /* \"#utility.yul\":466:562   */\ntag_11:\n    /* \"#utility.yul\":503:510   */\n  0x00\n    /* \"#utility.yul\":532:556   */\n  tag_20\n    /* \"#utility.yul\":550:555   */\n  dup3\n    /* \"#utility.yul\":532:556   */\n  tag_10\n  jump\t// in\ntag_20:\n    /* \"#utility.yul\":521:556   */\n  swap1\n  pop\n    /* \"#utility.yul\":466:562   */\n  swap2\n  swap1\n  pop\n  jump\t// out\n    /* \"#utility.yul\":568:690   */\ntag_12:\n    /* \"#utility.yul\":641:665   */\n  tag_22\n    /* \"#utility.yul\":659:664   */\n  dup2\n    /* \"#utility.yul\":641:665   */\n  tag_11\n  jump\t// in\ntag_22:\n    /* \"#utility.yul\":634:639   */\n  dup2\n    /* \"#utility.yul\":631:666   */\n  eq\n    /* \"#utility.yul\":621:684   */\n  tag_23\n  jumpi\n    /* \"#utility.yul\":680:681   */\n  0x00\n    /* \"#utility.yul\":677:678   */\n  0x00\n    /* \"#utility.yul\":670:682   */\n  revert\n    /* \"#utility.yul\":621:684   */\ntag_23:\n    /* \"#utility.yul\":568:690   */\n  pop\n  jump\t// out\n    /* \"#utility.yul\":696:839   */\ntag_13:\n    /* \"#utility.yul\":753:758   */\n  0x00\n    /* \"#utility.yul\":784:790   */\n  dup2\n    /* \"#utility.yul\":778:791   */\n  mload\n    /* \"#utility.yul\":769:791   */\n  swap1\n  pop\n    /* \"#utility.yul\":800:833   */\n  tag_25\n    /* \"#utility.yul\":827:832   */\n  dup2\n    /* \"#utility.yul\":800:833   */\n  tag_12\n  jump\t// in\ntag_25:\n    /* \"#utility.yul\":696:839   */\n  swap3\n  swap2\n  pop\n  pop\n  jump\t// out\n    /* \"#utility.yul\":845:1196   */\ntag_3:\n    /* \"#utility.yul\":915:921   */\n  0x00\n    /* \"#utility.yul\":964:966   */\n  0x20\n    /* \"#utility.yul\":952:961   */\n  dup3\n    /* \"#utility.yul\":943:950   */\n  dup5\n    /* \"#utility.yul\":939:962   */\n  sub\n    /* \"#utility.yul\":935:967   */\n  slt\n    /* \"#utility.yul\":932:1051   */\n  iszero\n  tag_27\n  jumpi\n    /* \"#utility.yul\":970:1049   */\n  tag_28\n  tag_8\n  jump\t// in\ntag_28:\n    /* \"#utility.yul\":932:1051   */\ntag_27:\n    /* \"#utility.yul\":1090:1091   */\n  0x00\n    /* \"#utility.yul\":1115:1179   */\n  tag_29\n    /* \"#utility.yul\":1171:1178   */\n  dup5\n    /* \"#utility.yul\":1162:1168   */\n  dup3\n    /* \"#utility.yul\":1151:1160   */\n  dup6\n    /* \"#utility.yul\":1147:1169   */\n  add\n    /* \"#utility.yul\":1115:1179   */\n  tag_13\n  jump\t// in\ntag_29:\n    /* \"#utility.yul\":1105:1179   */\n  swap2\n  pop\n    /* \"#utility.yul\":1061:1189   */\n  pop\n    /* \"#utility.yul\":845:1196   */\n  swap3\n  swap2\n  pop\n  pop\n  jump\t// out\n    /* \"Hookathon.sol\":397:1971  contract ExclusiveAccessPools {... */\ntag_6:\n  dataSize(sub_0)\n  dup1\n  dataOffset(sub_0)\n  0x00\n  codecopy\n  0x00\n  return\nstop\n\nsub_0: assembly {\n        /* \"Hookathon.sol\":397:1971  contract ExclusiveAccessPools {... */\n      mstore(0x40, 0x80)\n      callvalue\n      dup1\n      iszero\n      tag_1\n      jumpi\n      revert(0x00, 0x00)\n    tag_1:\n      pop\n      jumpi(tag_2, lt(calldatasize, 0x04))\n      shr(0xe0, calldataload(0x00))\n      dup1\n      0xa87430ba\n      gt\n      tag_11\n      jumpi\n      dup1\n      0xa87430ba\n      eq\n      tag_7\n      jumpi\n      dup1\n      0xb4054b44\n      eq\n      tag_8\n      jumpi\n      dup1\n      0xcf6c62ea\n      eq\n      tag_9\n      jumpi\n      dup1\n      0xf4f06c97\n      eq\n      tag_10\n      jumpi\n      jump(tag_2)\n    tag_11:\n      dup1\n      0x0543fe37\n      eq\n      tag_3\n      jumpi\n      dup1\n      0x29c9e746\n      eq\n      tag_4\n      jumpi\n      dup1\n      0x64eb1f30\n      eq\n      tag_5\n      jumpi\n      dup1\n      0x97f81a75\n      eq\n      tag_6\n      jumpi\n    tag_2:\n      revert(0x00, 0x00)\n        /* \"Hookathon.sol\":739:772  uint256 public minTradeCount = 10 */\n    tag_3:\n      tag_12\n      tag_13\n      jump\t// in\n    tag_12:\n      mload(0x40)\n      tag_14\n      swap2\n      swap1\n      tag_15\n      jump\t// in\n    tag_14:\n      mload(0x40)\n      dup1\n      swap2\n      sub\n      swap1\n      return\n        /* \"Hookathon.sol\":1009:1326  function registerTrade(uint256 volume) public {... */\n    tag_4:\n      tag_16\n      0x04\n      dup1\n      calldatasize\n      sub\n      dup2\n      add\n      swap1\n      tag_17\n      swap2\n      swap1\n      tag_18\n      jump\t// in\n    tag_17:\n      tag_19\n      jump\t// in\n    tag_16:\n      stop\n        /* \"Hookathon.sol\":1334:1504  function createExclusivePool() public {... */\n    tag_5:\n      tag_20\n      tag_21\n      jump\t// in\n    tag_20:\n      stop\n        /* \"Hookathon.sol\":589:620  address[] public exclusivePools */\n    tag_6:\n      tag_22\n      0x04\n      dup1\n      calldatasize\n      sub\n      dup2\n      add\n      swap1\n      tag_23\n      swap2\n      swap1\n      tag_18\n      jump\t// in\n    tag_23:\n      tag_24\n      jump\t// in\n    tag_22:\n      mload(0x40)\n      tag_25\n      swap2\n      swap1\n      tag_26\n      jump\t// in\n    tag_25:\n      mload(0x40)\n      dup1\n      swap2\n      sub\n      swap1\n      return\n        /* \"Hookathon.sol\":545:582  mapping(address => User) public users */\n    tag_7:\n      tag_27\n      0x04\n      dup1\n      calldatasize\n      sub\n      dup2\n      add\n      swap1\n      tag_28\n      swap2\n      swap1\n      tag_29\n      jump\t// in\n    tag_28:\n      tag_30\n      jump\t// in\n    tag_27:\n      mload(0x40)\n      tag_31\n      swap4\n      swap3\n      swap2\n      swap1\n      tag_32\n      jump\t// in\n    tag_31:\n      mload(0x40)\n      dup1\n      swap2\n      sub\n      swap1\n      return\n        /* \"Hookathon.sol\":627:662  address public pancakeRouterAddress */\n    tag_8:\n      tag_33\n      tag_34\n      jump\t// in\n    tag_33:\n      mload(0x40)\n      tag_35\n      swap2\n      swap1\n      tag_26\n      jump\t// in\n    tag_35:\n      mload(0x40)\n      dup1\n      swap2\n      sub\n      swap1\n      return\n        /* \"Hookathon.sol\":1512:1968  function addLiquidity(address tokenA, address tokenB, uint amountADesired, uint amountBDesired) public {... */\n    tag_9:\n      tag_36\n      0x04\n      dup1\n      calldatasize\n      sub\n      dup2\n      add\n      swap1\n      tag_37\n      swap2\n      swap1\n      tag_38\n      jump\t// in\n    tag_37:\n      tag_39\n      jump\t// in\n    tag_36:\n      stop\n        /* \"Hookathon.sol\":779:813  uint256 public minVolume = 1 ether */\n    tag_10:\n      tag_40\n      tag_41\n      jump\t// in\n    tag_40:\n      mload(0x40)\n      tag_42\n      swap2\n      swap1\n      tag_15\n      jump\t// in\n    tag_42:\n      mload(0x40)\n      dup1\n      swap2\n      sub\n      swap1\n      return\n        /* \"Hookathon.sol\":739:772  uint256 public minTradeCount = 10 */\n    tag_13:\n      sload(0x04)\n      dup2\n      jump\t// out\n        /* \"Hookathon.sol\":1009:1326  function registerTrade(uint256 volume) public {... */\n    tag_19:\n        /* \"Hookathon.sol\":1098:1099  1 */\n      0x01\n        /* \"Hookathon.sol\":1066:1071  users */\n      0x00\n        /* \"Hookathon.sol\":1066:1083  users[msg.sender] */\n      0x00\n        /* \"Hookathon.sol\":1072:1082  msg.sender */\n      caller\n        /* \"Hookathon.sol\":1066:1083  users[msg.sender] */\n      0xffffffffffffffffffffffffffffffffffffffff\n      and\n      0xffffffffffffffffffffffffffffffffffffffff\n      and\n      dup2\n      mstore\n      0x20\n      add\n      swap1\n      dup2\n      mstore\n      0x20\n      add\n      0x00\n      keccak256\n        /* \"Hookathon.sol\":1066:1094  users[msg.sender].tradeCount */\n      0x00\n      add\n      0x00\n        /* \"Hookathon.sol\":1066:1099  users[msg.sender].tradeCount += 1 */\n      dup3\n      dup3\n      sload\n      tag_44\n      swap2\n      swap1\n      tag_45\n      jump\t// in\n    tag_44:\n      swap3\n      pop\n      pop\n      dup2\n      swap1\n      sstore\n      pop\n        /* \"Hookathon.sol\":1143:1149  volume */\n      dup1\n        /* \"Hookathon.sol\":1110:1115  users */\n      0x00\n        /* \"Hookathon.sol\":1110:1127  users[msg.sender] */\n      0x00\n        /* \"Hookathon.sol\":1116:1126  msg.sender */\n      caller\n        /* \"Hookathon.sol\":1110:1127  users[msg.sender] */\n      0xffffffffffffffffffffffffffffffffffffffff\n      and\n      0xffffffffffffffffffffffffffffffffffffffff\n      and\n      dup2\n      mstore\n      0x20\n      add\n      swap1\n      dup2\n      mstore\n      0x20\n      add\n      0x00\n      keccak256\n        /* \"Hookathon.sol\":1110:1139  users[msg.sender].totalVolume */\n      0x01\n      add\n      0x00\n        /* \"Hookathon.sol\":1110:1149  users[msg.sender].totalVolume += volume */\n      dup3\n      dup3\n      sload\n      tag_46\n      swap2\n      swap1\n      tag_45\n      jump\t// in\n    tag_46:\n      swap3\n      pop\n      pop\n      dup2\n      swap1\n      sstore\n      pop\n        /* \"Hookathon.sol\":1198:1211  minTradeCount */\n      sload(0x04)\n        /* \"Hookathon.sol\":1166:1171  users */\n      0x00\n        /* \"Hookathon.sol\":1166:1183  users[msg.sender] */\n      0x00\n        /* \"Hookathon.sol\":1172:1182  msg.sender */\n      caller\n        /* \"Hookathon.sol\":1166:1183  users[msg.sender] */\n      0xffffffffffffffffffffffffffffffffffffffff\n      and\n      0xffffffffffffffffffffffffffffffffffffffff\n      and\n      dup2\n      mstore\n      0x20\n      add\n      swap1\n      dup2\n      mstore\n      0x20\n      add\n      0x00\n      keccak256\n        /* \"Hookathon.sol\":1166:1194  users[msg.sender].tradeCount */\n      0x00\n      add\n      sload\n        /* \"Hookathon.sol\":1166:1211  users[msg.sender].tradeCount >= minTradeCount */\n      lt\n      iszero\n        /* \"Hookathon.sol\":1166:1257  users[msg.sender].tradeCount >= minTradeCount && users[msg.sender].totalVolume >= minVolume */\n      dup1\n      iszero\n      tag_47\n      jumpi\n      pop\n        /* \"Hookathon.sol\":1248:1257  minVolume */\n      sload(0x05)\n        /* \"Hookathon.sol\":1215:1220  users */\n      0x00\n        /* \"Hookathon.sol\":1215:1232  users[msg.sender] */\n      0x00\n        /* \"Hookathon.sol\":1221:1231  msg.sender */\n      caller\n        /* \"Hookathon.sol\":1215:1232  users[msg.sender] */\n      0xffffffffffffffffffffffffffffffffffffffff\n      and\n      0xffffffffffffffffffffffffffffffffffffffff\n      and\n      dup2\n      mstore\n      0x20\n      add\n      swap1\n      dup2\n      mstore\n      0x20\n      add\n      0x00\n      keccak256\n        /* \"Hookathon.sol\":1215:1244  users[msg.sender].totalVolume */\n      0x01\n      add\n      sload\n        /* \"Hookathon.sol\":1215:1257  users[msg.sender].totalVolume >= minVolume */\n      lt\n      iszero\n        /* \"Hookathon.sol\":1166:1257  users[msg.sender].tradeCount >= minTradeCount && users[msg.sender].totalVolume >= minVolume */\n    tag_47:\n        /* \"Hookathon.sol\":1162:1319  if (users[msg.sender].tradeCount >= minTradeCount && users[msg.sender].totalVolume >= minVolume) {... */\n      iszero\n      tag_48\n      jumpi\n        /* \"Hookathon.sol\":1303:1307  true */\n      0x01\n        /* \"Hookathon.sol\":1274:1279  users */\n      0x00\n        /* \"Hookathon.sol\":1274:1291  users[msg.sender] */\n      0x00\n        /* \"Hookathon.sol\":1280:1290  msg.sender */\n      caller\n        /* \"Hookathon.sol\":1274:1291  users[msg.sender] */\n      0xffffffffffffffffffffffffffffffffffffffff\n      and\n      0xffffffffffffffffffffffffffffffffffffffff\n      and\n      dup2\n      mstore\n      0x20\n      add\n      swap1\n      dup2\n      mstore\n      0x20\n      add\n      0x00\n      keccak256\n        /* \"Hookathon.sol\":1274:1300  users[msg.sender].eligible */\n      0x02\n      add\n      0x00\n        /* \"Hookathon.sol\":1274:1307  users[msg.sender].eligible = true */\n      0x0100\n      exp\n      dup2\n      sload\n      dup2\n      0xff\n      mul\n      not\n      and\n      swap1\n      dup4\n      iszero\n      iszero\n      mul\n      or\n      swap1\n      sstore\n      pop\n        /* \"Hookathon.sol\":1162:1319  if (users[msg.sender].tradeCount >= minTradeCount && users[msg.sender].totalVolume >= minVolume) {... */\n    tag_48:\n        /* \"Hookathon.sol\":1009:1326  function registerTrade(uint256 volume) public {... */\n      pop\n      jump\t// out\n        /* \"Hookathon.sol\":1334:1504  function createExclusivePool() public {... */\n    tag_21:\n        /* \"Hookathon.sol\":1391:1396  users */\n      0x00\n        /* \"Hookathon.sol\":1391:1408  users[msg.sender] */\n      0x00\n        /* \"Hookathon.sol\":1397:1407  msg.sender */\n      caller\n        /* \"Hookathon.sol\":1391:1408  users[msg.sender] */\n      0xffffffffffffffffffffffffffffffffffffffff\n      and\n      0xffffffffffffffffffffffffffffffffffffffff\n      and\n      dup2\n      mstore\n      0x20\n      add\n      swap1\n      dup2\n      mstore\n      0x20\n      add\n      0x00\n      keccak256\n        /* \"Hookathon.sol\":1391:1417  users[msg.sender].eligible */\n      0x02\n      add\n      0x00\n      swap1\n      sload\n      swap1\n      0x0100\n      exp\n      swap1\n      div\n      0xff\n      and\n        /* \"Hookathon.sol\":1383:1453  require(users[msg.sender].eligible, \"Not eligible for exclusive pool\") */\n      tag_50\n      jumpi\n      mload(0x40)\n      0x08c379a000000000000000000000000000000000000000000000000000000000\n      dup2\n      mstore\n      0x04\n      add\n      tag_51\n      swap1\n      tag_52\n      jump\t// in\n    tag_51:\n      mload(0x40)\n      dup1\n      swap2\n      sub\n      swap1\n      revert\n    tag_50:\n        /* \"Hookathon.sol\":1464:1478  exclusivePools */\n      0x01\n        /* \"Hookathon.sol\":1484:1494  msg.sender */\n      caller\n        /* \"Hookathon.sol\":1464:1495  exclusivePools.push(msg.sender) */\n      swap1\n      dup1\n      0x01\n      dup2\n      sload\n      add\n      dup1\n      dup3\n      sstore\n      dup1\n      swap2\n      pop\n      pop\n      0x01\n      swap1\n      sub\n      swap1\n      0x00\n      mstore\n      keccak256(0x00, 0x20)\n      add\n      0x00\n      swap1\n      swap2\n      swap1\n      swap2\n      swap1\n      swap2\n      0x0100\n      exp\n      dup2\n      sload\n      dup2\n      0xffffffffffffffffffffffffffffffffffffffff\n      mul\n      not\n      and\n      swap1\n      dup4\n      0xffffffffffffffffffffffffffffffffffffffff\n      and\n      mul\n      or\n      swap1\n      sstore\n      pop\n        /* \"Hookathon.sol\":1334:1504  function createExclusivePool() public {... */\n      jump\t// out\n        /* \"Hookathon.sol\":589:620  address[] public exclusivePools */\n    tag_24:\n      0x01\n      dup2\n      dup2\n      sload\n      dup2\n      lt\n      tag_54\n      jumpi\n      0x00\n      dup1\n      revert\n    tag_54:\n      swap1\n      0x00\n      mstore\n      keccak256(0x00, 0x20)\n      add\n      0x00\n      swap2\n      pop\n      sload\n      swap1\n      0x0100\n      exp\n      swap1\n      div\n      0xffffffffffffffffffffffffffffffffffffffff\n      and\n      dup2\n      jump\t// out\n        /* \"Hookathon.sol\":545:582  mapping(address => User) public users */\n    tag_30:\n      mstore(0x20, 0x00)\n      dup1\n      0x00\n      mstore\n      keccak256(0x00, 0x40)\n      0x00\n      swap2\n      pop\n      swap1\n      pop\n      dup1\n      0x00\n      add\n      sload\n      swap1\n      dup1\n      0x01\n      add\n      sload\n      swap1\n      dup1\n      0x02\n      add\n      0x00\n      swap1\n      sload\n      swap1\n      0x0100\n      exp\n      swap1\n      div\n      0xff\n      and\n      swap1\n      pop\n      dup4\n      jump\t// out\n        /* \"Hookathon.sol\":627:662  address public pancakeRouterAddress */\n    tag_34:\n      0x02\n      0x00\n      swap1\n      sload\n      swap1\n      0x0100\n      exp\n      swap1\n      div\n      0xffffffffffffffffffffffffffffffffffffffff\n      and\n      dup2\n      jump\t// out\n        /* \"Hookathon.sol\":1512:1968  function addLiquidity(address tokenA, address tokenB, uint amountADesired, uint amountBDesired) public {... */\n    tag_39:\n        /* \"Hookathon.sol\":1634:1639  users */\n      0x00\n        /* \"Hookathon.sol\":1634:1651  users[msg.sender] */\n      0x00\n        /* \"Hookathon.sol\":1640:1650  msg.sender */\n      caller\n        /* \"Hookathon.sol\":1634:1651  users[msg.sender] */\n      0xffffffffffffffffffffffffffffffffffffffff\n      and\n      0xffffffffffffffffffffffffffffffffffffffff\n      and\n      dup2\n      mstore\n      0x20\n      add\n      swap1\n      dup2\n      mstore\n      0x20\n      add\n      0x00\n      keccak256\n        /* \"Hookathon.sol\":1634:1660  users[msg.sender].eligible */\n      0x02\n      add\n      0x00\n      swap1\n      sload\n      swap1\n      0x0100\n      exp\n      swap1\n      div\n      0xff\n      and\n        /* \"Hookathon.sol\":1626:1694  require(users[msg.sender].eligible, \"Not eligible to add liquidity\") */\n      tag_57\n      jumpi\n      mload(0x40)\n      0x08c379a000000000000000000000000000000000000000000000000000000000\n      dup2\n      mstore\n      0x04\n      add\n      tag_58\n      swap1\n      tag_59\n      jump\t// in\n    tag_58:\n      mload(0x40)\n      dup1\n      swap2\n      sub\n      swap1\n      revert\n    tag_57:\n        /* \"Hookathon.sol\":1709:1722  pancakeRouter */\n      0x03\n      0x00\n      swap1\n      sload\n      swap1\n      0x0100\n      exp\n      swap1\n      div\n      0xffffffffffffffffffffffffffffffffffffffff\n      and\n        /* \"Hookathon.sol\":1709:1735  pancakeRouter.addLiquidity */\n      0xffffffffffffffffffffffffffffffffffffffff\n      and\n      0xe8e33700\n        /* \"Hookathon.sol\":1750:1756  tokenA */\n      dup6\n        /* \"Hookathon.sol\":1771:1777  tokenB */\n      dup6\n        /* \"Hookathon.sol\":1792:1806  amountADesired */\n      dup6\n        /* \"Hookathon.sol\":1821:1835  amountBDesired */\n      dup6\n        /* \"Hookathon.sol\":1850:1851  0 */\n      0x00\n        /* \"Hookathon.sol\":1867:1868  0 */\n      0x00\n        /* \"Hookathon.sol\":1884:1894  msg.sender */\n      caller\n        /* \"Hookathon.sol\":1922:1937  block.timestamp */\n      timestamp\n        /* \"Hookathon.sol\":1709:1960  pancakeRouter.addLiquidity(... */\n      mload(0x40)\n      dup10\n      0xffffffff\n      and\n      0xe0\n      shl\n      dup2\n      mstore\n      0x04\n      add\n      tag_60\n      swap9\n      swap8\n      swap7\n      swap6\n      swap5\n      swap4\n      swap3\n      swap2\n      swap1\n      tag_61\n      jump\t// in\n    tag_60:\n      0x60\n      mload(0x40)\n      dup1\n      dup4\n      sub\n      dup2\n      0x00\n      dup8\n      gas\n      call\n      iszero\n      dup1\n      iszero\n      tag_63\n      jumpi\n      returndatacopy(0x00, 0x00, returndatasize)\n      revert(0x00, returndatasize)\n    tag_63:\n      pop\n      pop\n      pop\n      pop\n      mload(0x40)\n      returndatasize\n      not(0x1f)\n      0x1f\n      dup3\n      add\n      and\n      dup3\n      add\n      dup1\n      0x40\n      mstore\n      pop\n      dup2\n      add\n      swap1\n      tag_64\n      swap2\n      swap1\n      tag_65\n      jump\t// in\n    tag_64:\n      pop\n      pop\n      pop\n        /* \"Hookathon.sol\":1512:1968  function addLiquidity(address tokenA, address tokenB, uint amountADesired, uint amountBDesired) public {... */\n      pop\n      pop\n      pop\n      pop\n      jump\t// out\n        /* \"Hookathon.sol\":779:813  uint256 public minVolume = 1 ether */\n    tag_41:\n      sload(0x05)\n      dup2\n      jump\t// out\n        /* \"#utility.yul\":7:84   */\n    tag_66:\n        /* \"#utility.yul\":44:51   */\n      0x00\n        /* \"#utility.yul\":73:78   */\n      dup2\n        /* \"#utility.yul\":62:78   */\n      swap1\n      pop\n        /* \"#utility.yul\":7:84   */\n      swap2\n      swap1\n      pop\n      jump\t// out\n        /* \"#utility.yul\":90:208   */\n    tag_67:\n        /* \"#utility.yul\":177:201   */\n      tag_94\n        /* \"#utility.yul\":195:200   */\n      dup2\n        /* \"#utility.yul\":177:201   */\n      tag_66\n      jump\t// in\n    tag_94:\n        /* \"#utility.yul\":172:175   */\n      dup3\n        /* \"#utility.yul\":165:202   */\n      mstore\n        /* \"#utility.yul\":90:208   */\n      pop\n      pop\n      jump\t// out\n        /* \"#utility.yul\":214:436   */\n    tag_15:\n        /* \"#utility.yul\":307:311   */\n      0x00\n        /* \"#utility.yul\":345:347   */\n      0x20\n        /* \"#utility.yul\":334:343   */\n      dup3\n        /* \"#utility.yul\":330:348   */\n      add\n        /* \"#utility.yul\":322:348   */\n      swap1\n      pop\n        /* \"#utility.yul\":358:429   */\n      tag_96\n        /* \"#utility.yul\":426:427   */\n      0x00\n        /* \"#utility.yul\":415:424   */\n      dup4\n        /* \"#utility.yul\":411:428   */\n      add\n        /* \"#utility.yul\":402:408   */\n      dup5\n        /* \"#utility.yul\":358:429   */\n      tag_67\n      jump\t// in\n    tag_96:\n        /* \"#utility.yul\":214:436   */\n      swap3\n      swap2\n      pop\n      pop\n      jump\t// out\n        /* \"#utility.yul\":523:640   */\n    tag_69:\n        /* \"#utility.yul\":632:633   */\n      0x00\n        /* \"#utility.yul\":629:630   */\n      0x00\n        /* \"#utility.yul\":622:634   */\n      revert\n        /* \"#utility.yul\":769:891   */\n    tag_71:\n        /* \"#utility.yul\":842:866   */\n      tag_101\n        /* \"#utility.yul\":860:865   */\n      dup2\n        /* \"#utility.yul\":842:866   */\n      tag_66\n      jump\t// in\n    tag_101:\n        /* \"#utility.yul\":835:840   */\n      dup2\n        /* \"#utility.yul\":832:867   */\n      eq\n        /* \"#utility.yul\":822:885   */\n      tag_102\n      jumpi\n        /* \"#utility.yul\":881:882   */\n      0x00\n        /* \"#utility.yul\":878:879   */\n      0x00\n        /* \"#utility.yul\":871:883   */\n      revert\n        /* \"#utility.yul\":822:885   */\n    tag_102:\n        /* \"#utility.yul\":769:891   */\n      pop\n      jump\t// out\n        /* \"#utility.yul\":897:1036   */\n    tag_72:\n        /* \"#utility.yul\":943:948   */\n      0x00\n        /* \"#utility.yul\":981:987   */\n      dup2\n        /* \"#utility.yul\":968:988   */\n      calldataload\n        /* \"#utility.yul\":959:988   */\n      swap1\n      pop\n        /* \"#utility.yul\":997:1030   */\n      tag_104\n        /* \"#utility.yul\":1024:1029   */\n      dup2\n        /* \"#utility.yul\":997:1030   */\n      tag_71\n      jump\t// in\n    tag_104:\n        /* \"#utility.yul\":897:1036   */\n      swap3\n      swap2\n      pop\n      pop\n      jump\t// out\n        /* \"#utility.yul\":1042:1371   */\n    tag_18:\n        /* \"#utility.yul\":1101:1107   */\n      0x00\n        /* \"#utility.yul\":1150:1152   */\n      0x20\n        /* \"#utility.yul\":1138:1147   */\n      dup3\n        /* \"#utility.yul\":1129:1136   */\n      dup5\n        /* \"#utility.yul\":1125:1148   */\n      sub\n        /* \"#utility.yul\":1121:1153   */\n      slt\n        /* \"#utility.yul\":1118:1237   */\n      iszero\n      tag_106\n      jumpi\n        /* \"#utility.yul\":1156:1235   */\n      tag_107\n      tag_69\n      jump\t// in\n    tag_107:\n        /* \"#utility.yul\":1118:1237   */\n    tag_106:\n        /* \"#utility.yul\":1276:1277   */\n      0x00\n        /* \"#utility.yul\":1301:1354   */\n      tag_108\n        /* \"#utility.yul\":1346:1353   */\n      dup5\n        /* \"#utility.yul\":1337:1343   */\n      dup3\n        /* \"#utility.yul\":1326:1335   */\n      dup6\n        /* \"#utility.yul\":1322:1344   */\n      add\n        /* \"#utility.yul\":1301:1354   */\n      tag_72\n      jump\t// in\n    tag_108:\n        /* \"#utility.yul\":1291:1354   */\n      swap2\n      pop\n        /* \"#utility.yul\":1247:1364   */\n      pop\n        /* \"#utility.yul\":1042:1371   */\n      swap3\n      swap2\n      pop\n      pop\n      jump\t// out\n        /* \"#utility.yul\":1377:1503   */\n    tag_73:\n        /* \"#utility.yul\":1414:1421   */\n      0x00\n        /* \"#utility.yul\":1454:1496   */\n      0xffffffffffffffffffffffffffffffffffffffff\n        /* \"#utility.yul\":1447:1452   */\n      dup3\n        /* \"#utility.yul\":1443:1497   */\n      and\n        /* \"#utility.yul\":1432:1497   */\n      swap1\n      pop\n        /* \"#utility.yul\":1377:1503   */\n      swap2\n      swap1\n      pop\n      jump\t// out\n        /* \"#utility.yul\":1509:1605   */\n    tag_74:\n        /* \"#utility.yul\":1546:1553   */\n      0x00\n        /* \"#utility.yul\":1575:1599   */\n      tag_111\n        /* \"#utility.yul\":1593:1598   */\n      dup3\n        /* \"#utility.yul\":1575:1599   */\n      tag_73\n      jump\t// in\n    tag_111:\n        /* \"#utility.yul\":1564:1599   */\n      swap1\n      pop\n        /* \"#utility.yul\":1509:1605   */\n      swap2\n      swap1\n      pop\n      jump\t// out\n        /* \"#utility.yul\":1611:1729   */\n    tag_75:\n        /* \"#utility.yul\":1698:1722   */\n      tag_113\n        /* \"#utility.yul\":1716:1721   */\n      dup2\n        /* \"#utility.yul\":1698:1722   */\n      tag_74\n      jump\t// in\n    tag_113:\n        /* \"#utility.yul\":1693:1696   */\n      dup3\n        /* \"#utility.yul\":1686:1723   */\n      mstore\n        /* \"#utility.yul\":1611:1729   */\n      pop\n      pop\n      jump\t// out\n        /* \"#utility.yul\":1735:1957   */\n    tag_26:\n        /* \"#utility.yul\":1828:1832   */\n      0x00\n        /* \"#utility.yul\":1866:1868   */\n      0x20\n        /* \"#utility.yul\":1855:1864   */\n      dup3\n        /* \"#utility.yul\":1851:1869   */\n      add\n        /* \"#utility.yul\":1843:1869   */\n      swap1\n      pop\n        /* \"#utility.yul\":1879:1950   */\n      tag_115\n        /* \"#utility.yul\":1947:1948   */\n      0x00\n        /* \"#utility.yul\":1936:1945   */\n      dup4\n        /* \"#utility.yul\":1932:1949   */\n      add\n        /* \"#utility.yul\":1923:1929   */\n      dup5\n        /* \"#utility.yul\":1879:1950   */\n      tag_75\n      jump\t// in\n    tag_115:\n        /* \"#utility.yul\":1735:1957   */\n      swap3\n      swap2\n      pop\n      pop\n      jump\t// out\n        /* \"#utility.yul\":1963:2085   */\n    tag_76:\n        /* \"#utility.yul\":2036:2060   */\n      tag_117\n        /* \"#utility.yul\":2054:2059   */\n      dup2\n        /* \"#utility.yul\":2036:2060   */\n      tag_74\n      jump\t// in\n    tag_117:\n        /* \"#utility.yul\":2029:2034   */\n      dup2\n        /* \"#utility.yul\":2026:2061   */\n      eq\n        /* \"#utility.yul\":2016:2079   */\n      tag_118\n      jumpi\n        /* \"#utility.yul\":2075:2076   */\n      0x00\n        /* \"#utility.yul\":2072:2073   */\n      0x00\n        /* \"#utility.yul\":2065:2077   */\n      revert\n        /* \"#utility.yul\":2016:2079   */\n    tag_118:\n        /* \"#utility.yul\":1963:2085   */\n      pop\n      jump\t// out\n        /* \"#utility.yul\":2091:2230   */\n    tag_77:\n        /* \"#utility.yul\":2137:2142   */\n      0x00\n        /* \"#utility.yul\":2175:2181   */\n      dup2\n        /* \"#utility.yul\":2162:2182   */\n      calldataload\n        /* \"#utility.yul\":2153:2182   */\n      swap1\n      pop\n        /* \"#utility.yul\":2191:2224   */\n      tag_120\n        /* \"#utility.yul\":2218:2223   */\n      dup2\n        /* \"#utility.yul\":2191:2224   */\n      tag_76\n      jump\t// in\n    tag_120:\n        /* \"#utility.yul\":2091:2230   */\n      swap3\n      swap2\n      pop\n      pop\n      jump\t// out\n        /* \"#utility.yul\":2236:2565   */\n    tag_29:\n        /* \"#utility.yul\":2295:2301   */\n      0x00\n        /* \"#utility.yul\":2344:2346   */\n      0x20\n        /* \"#utility.yul\":2332:2341   */\n      dup3\n        /* \"#utility.yul\":2323:2330   */\n      dup5\n        /* \"#utility.yul\":2319:2342   */\n      sub\n        /* \"#utility.yul\":2315:2347   */\n      slt\n        /* \"#utility.yul\":2312:2431   */\n      iszero\n      tag_122\n      jumpi\n        /* \"#utility.yul\":2350:2429   */\n      tag_123\n      tag_69\n      jump\t// in\n    tag_123:\n        /* \"#utility.yul\":2312:2431   */\n    tag_122:\n        /* \"#utility.yul\":2470:2471   */\n      0x00\n        /* \"#utility.yul\":2495:2548   */\n      tag_124\n        /* \"#utility.yul\":2540:2547   */\n      dup5\n        /* \"#utility.yul\":2531:2537   */\n      dup3\n        /* \"#utility.yul\":2520:2529   */\n      dup6\n        /* \"#utility.yul\":2516:2538   */\n      add\n        /* \"#utility.yul\":2495:2548   */\n      tag_77\n      jump\t// in\n    tag_124:\n        /* \"#utility.yul\":2485:2548   */\n      swap2\n      pop\n        /* \"#utility.yul\":2441:2558   */\n      pop\n        /* \"#utility.yul\":2236:2565   */\n      swap3\n      swap2\n      pop\n      pop\n      jump\t// out\n        /* \"#utility.yul\":2571:2661   */\n    tag_78:\n        /* \"#utility.yul\":2605:2612   */\n      0x00\n        /* \"#utility.yul\":2648:2653   */\n      dup2\n        /* \"#utility.yul\":2641:2654   */\n      iszero\n        /* \"#utility.yul\":2634:2655   */\n      iszero\n        /* \"#utility.yul\":2623:2655   */\n      swap1\n      pop\n        /* \"#utility.yul\":2571:2661   */\n      swap2\n      swap1\n      pop\n      jump\t// out\n        /* \"#utility.yul\":2667:2776   */\n    tag_79:\n        /* \"#utility.yul\":2748:2769   */\n      tag_127\n        /* \"#utility.yul\":2763:2768   */\n      dup2\n        /* \"#utility.yul\":2748:2769   */\n      tag_78\n      jump\t// in\n    tag_127:\n        /* \"#utility.yul\":2743:2746   */\n      dup3\n        /* \"#utility.yul\":2736:2770   */\n      mstore\n        /* \"#utility.yul\":2667:2776   */\n      pop\n      pop\n      jump\t// out\n        /* \"#utility.yul\":2782:3212   */\n    tag_32:\n        /* \"#utility.yul\":2925:2929   */\n      0x00\n        /* \"#utility.yul\":2963:2965   */\n      0x60\n        /* \"#utility.yul\":2952:2961   */\n      dup3\n        /* \"#utility.yul\":2948:2966   */\n      add\n        /* \"#utility.yul\":2940:2966   */\n      swap1\n      pop\n        /* \"#utility.yul\":2976:3047   */\n      tag_129\n        /* \"#utility.yul\":3044:3045   */\n      0x00\n        /* \"#utility.yul\":3033:3042   */\n      dup4\n        /* \"#utility.yul\":3029:3046   */\n      add\n        /* \"#utility.yul\":3020:3026   */\n      dup7\n        /* \"#utility.yul\":2976:3047   */\n      tag_67\n      jump\t// in\n    tag_129:\n        /* \"#utility.yul\":3057:3129   */\n      tag_130\n        /* \"#utility.yul\":3125:3127   */\n      0x20\n        /* \"#utility.yul\":3114:3123   */\n      dup4\n        /* \"#utility.yul\":3110:3128   */\n      add\n        /* \"#utility.yul\":3101:3107   */\n      dup6\n        /* \"#utility.yul\":3057:3129   */\n      tag_67\n      jump\t// in\n    tag_130:\n        /* \"#utility.yul\":3139:3205   */\n      tag_131\n        /* \"#utility.yul\":3201:3203   */\n      0x40\n        /* \"#utility.yul\":3190:3199   */\n      dup4\n        /* \"#utility.yul\":3186:3204   */\n      add\n        /* \"#utility.yul\":3177:3183   */\n      dup5\n        /* \"#utility.yul\":3139:3205   */\n      tag_79\n      jump\t// in\n    tag_131:\n        /* \"#utility.yul\":2782:3212   */\n      swap5\n      swap4\n      pop\n      pop\n      pop\n      pop\n      jump\t// out\n        /* \"#utility.yul\":3218:3983   */\n    tag_38:\n        /* \"#utility.yul\":3304:3310   */\n      0x00\n        /* \"#utility.yul\":3312:3318   */\n      0x00\n        /* \"#utility.yul\":3320:3326   */\n      0x00\n        /* \"#utility.yul\":3328:3334   */\n      0x00\n        /* \"#utility.yul\":3377:3380   */\n      0x80\n        /* \"#utility.yul\":3365:3374   */\n      dup6\n        /* \"#utility.yul\":3356:3363   */\n      dup8\n        /* \"#utility.yul\":3352:3375   */\n      sub\n        /* \"#utility.yul\":3348:3381   */\n      slt\n        /* \"#utility.yul\":3345:3465   */\n      iszero\n      tag_133\n      jumpi\n        /* \"#utility.yul\":3384:3463   */\n      tag_134\n      tag_69\n      jump\t// in\n    tag_134:\n        /* \"#utility.yul\":3345:3465   */\n    tag_133:\n        /* \"#utility.yul\":3504:3505   */\n      0x00\n        /* \"#utility.yul\":3529:3582   */\n      tag_135\n        /* \"#utility.yul\":3574:3581   */\n      dup8\n        /* \"#utility.yul\":3565:3571   */\n      dup3\n        /* \"#utility.yul\":3554:3563   */\n      dup9\n        /* \"#utility.yul\":3550:3572   */\n      add\n        /* \"#utility.yul\":3529:3582   */\n      tag_77\n      jump\t// in\n    tag_135:\n        /* \"#utility.yul\":3519:3582   */\n      swap5\n      pop\n        /* \"#utility.yul\":3475:3592   */\n      pop\n        /* \"#utility.yul\":3631:3633   */\n      0x20\n        /* \"#utility.yul\":3657:3710   */\n      tag_136\n        /* \"#utility.yul\":3702:3709   */\n      dup8\n        /* \"#utility.yul\":3693:3699   */\n      dup3\n        /* \"#utility.yul\":3682:3691   */\n      dup9\n        /* \"#utility.yul\":3678:3700   */\n      add\n        /* \"#utility.yul\":3657:3710   */\n      tag_77\n      jump\t// in\n    tag_136:\n        /* \"#utility.yul\":3647:3710   */\n      swap4\n      pop\n        /* \"#utility.yul\":3602:3720   */\n      pop\n        /* \"#utility.yul\":3759:3761   */\n      0x40\n        /* \"#utility.yul\":3785:3838   */\n      tag_137\n        /* \"#utility.yul\":3830:3837   */\n      dup8\n        /* \"#utility.yul\":3821:3827   */\n      dup3\n        /* \"#utility.yul\":3810:3819   */\n      dup9\n        /* \"#utility.yul\":3806:3828   */\n      add\n        /* \"#utility.yul\":3785:3838   */\n      tag_72\n      jump\t// in\n    tag_137:\n        /* \"#utility.yul\":3775:3838   */\n      swap3\n      pop\n        /* \"#utility.yul\":3730:3848   */\n      pop\n        /* \"#utility.yul\":3887:3889   */\n      0x60\n        /* \"#utility.yul\":3913:3966   */\n      tag_138\n        /* \"#utility.yul\":3958:3965   */\n      dup8\n        /* \"#utility.yul\":3949:3955   */\n      dup3\n        /* \"#utility.yul\":3938:3947   */\n      dup9\n        /* \"#utility.yul\":3934:3956   */\n      add\n        /* \"#utility.yul\":3913:3966   */\n      tag_72\n      jump\t// in\n    tag_138:\n        /* \"#utility.yul\":3903:3966   */\n      swap2\n      pop\n        /* \"#utility.yul\":3858:3976   */\n      pop\n        /* \"#utility.yul\":3218:3983   */\n      swap3\n      swap6\n      swap2\n      swap5\n      pop\n      swap3\n      pop\n      jump\t// out\n        /* \"#utility.yul\":3989:4169   */\n    tag_80:\n        /* \"#utility.yul\":4037:4114   */\n      0x4e487b7100000000000000000000000000000000000000000000000000000000\n        /* \"#utility.yul\":4034:4035   */\n      0x00\n        /* \"#utility.yul\":4027:4115   */\n      mstore\n        /* \"#utility.yul\":4134:4138   */\n      0x11\n        /* \"#utility.yul\":4131:4132   */\n      0x04\n        /* \"#utility.yul\":4124:4139   */\n      mstore\n        /* \"#utility.yul\":4158:4162   */\n      0x24\n        /* \"#utility.yul\":4155:4156   */\n      0x00\n        /* \"#utility.yul\":4148:4163   */\n      revert\n        /* \"#utility.yul\":4175:4366   */\n    tag_45:\n        /* \"#utility.yul\":4215:4218   */\n      0x00\n        /* \"#utility.yul\":4234:4254   */\n      tag_141\n        /* \"#utility.yul\":4252:4253   */\n      dup3\n        /* \"#utility.yul\":4234:4254   */\n      tag_66\n      jump\t// in\n    tag_141:\n        /* \"#utility.yul\":4229:4254   */\n      swap2\n      pop\n        /* \"#utility.yul\":4268:4288   */\n      tag_142\n        /* \"#utility.yul\":4286:4287   */\n      dup4\n        /* \"#utility.yul\":4268:4288   */\n      tag_66\n      jump\t// in\n    tag_142:\n        /* \"#utility.yul\":4263:4288   */\n      swap3\n      pop\n        /* \"#utility.yul\":4311:4312   */\n      dup3\n        /* \"#utility.yul\":4308:4309   */\n      dup3\n        /* \"#utility.yul\":4304:4313   */\n      add\n        /* \"#utility.yul\":4297:4313   */\n      swap1\n      pop\n        /* \"#utility.yul\":4332:4335   */\n      dup1\n        /* \"#utility.yul\":4329:4330   */\n      dup3\n        /* \"#utility.yul\":4326:4336   */\n      gt\n        /* \"#utility.yul\":4323:4359   */\n      iszero\n      tag_143\n      jumpi\n        /* \"#utility.yul\":4339:4357   */\n      tag_144\n      tag_80\n      jump\t// in\n    tag_144:\n        /* \"#utility.yul\":4323:4359   */\n    tag_143:\n        /* \"#utility.yul\":4175:4366   */\n      swap3\n      swap2\n      pop\n      pop\n      jump\t// out\n        /* \"#utility.yul\":4372:4541   */\n    tag_81:\n        /* \"#utility.yul\":4456:4467   */\n      0x00\n        /* \"#utility.yul\":4490:4496   */\n      dup3\n        /* \"#utility.yul\":4485:4488   */\n      dup3\n        /* \"#utility.yul\":4478:4497   */\n      mstore\n        /* \"#utility.yul\":4530:4534   */\n      0x20\n        /* \"#utility.yul\":4525:4528   */\n      dup3\n        /* \"#utility.yul\":4521:4535   */\n      add\n        /* \"#utility.yul\":4506:4535   */\n      swap1\n      pop\n        /* \"#utility.yul\":4372:4541   */\n      swap3\n      swap2\n      pop\n      pop\n      jump\t// out\n        /* \"#utility.yul\":4547:4728   */\n    tag_82:\n        /* \"#utility.yul\":4687:4720   */\n      0x4e6f7420656c696769626c6520666f72206578636c757369766520706f6f6c00\n        /* \"#utility.yul\":4683:4684   */\n      0x00\n        /* \"#utility.yul\":4675:4681   */\n      dup3\n        /* \"#utility.yul\":4671:4685   */\n      add\n        /* \"#utility.yul\":4664:4721   */\n      mstore\n        /* \"#utility.yul\":4547:4728   */\n      pop\n      jump\t// out\n        /* \"#utility.yul\":4734:5100   */\n    tag_83:\n        /* \"#utility.yul\":4876:4879   */\n      0x00\n        /* \"#utility.yul\":4897:4964   */\n      tag_148\n        /* \"#utility.yul\":4961:4963   */\n      0x1f\n        /* \"#utility.yul\":4956:4959   */\n      dup4\n        /* \"#utility.yul\":4897:4964   */\n      tag_81\n      jump\t// in\n    tag_148:\n        /* \"#utility.yul\":4890:4964   */\n      swap2\n      pop\n        /* \"#utility.yul\":4973:5066   */\n      tag_149\n        /* \"#utility.yul\":5062:5065   */\n      dup3\n        /* \"#utility.yul\":4973:5066   */\n      tag_82\n      jump\t// in\n    tag_149:\n        /* \"#utility.yul\":5091:5093   */\n      0x20\n        /* \"#utility.yul\":5086:5089   */\n      dup3\n        /* \"#utility.yul\":5082:5094   */\n      add\n        /* \"#utility.yul\":5075:5094   */\n      swap1\n      pop\n        /* \"#utility.yul\":4734:5100   */\n      swap2\n      swap1\n      pop\n      jump\t// out\n        /* \"#utility.yul\":5106:5525   */\n    tag_52:\n        /* \"#utility.yul\":5272:5276   */\n      0x00\n        /* \"#utility.yul\":5310:5312   */\n      0x20\n        /* \"#utility.yul\":5299:5308   */\n      dup3\n        /* \"#utility.yul\":5295:5313   */\n      add\n        /* \"#utility.yul\":5287:5313   */\n      swap1\n      pop\n        /* \"#utility.yul\":5359:5368   */\n      dup2\n        /* \"#utility.yul\":5353:5357   */\n      dup2\n        /* \"#utility.yul\":5349:5369   */\n      sub\n        /* \"#utility.yul\":5345:5346   */\n      0x00\n        /* \"#utility.yul\":5334:5343   */\n      dup4\n        /* \"#utility.yul\":5330:5347   */\n      add\n        /* \"#utility.yul\":5323:5370   */\n      mstore\n        /* \"#utility.yul\":5387:5518   */\n      tag_151\n        /* \"#utility.yul\":5513:5517   */\n      dup2\n        /* \"#utility.yul\":5387:5518   */\n      tag_83\n      jump\t// in\n    tag_151:\n        /* \"#utility.yul\":5379:5518   */\n      swap1\n      pop\n        /* \"#utility.yul\":5106:5525   */\n      swap2\n      swap1\n      pop\n      jump\t// out\n        /* \"#utility.yul\":5531:5710   */\n    tag_84:\n        /* \"#utility.yul\":5671:5702   */\n      0x4e6f7420656c696769626c6520746f20616464206c6971756964697479000000\n        /* \"#utility.yul\":5667:5668   */\n      0x00\n        /* \"#utility.yul\":5659:5665   */\n      dup3\n        /* \"#utility.yul\":5655:5669   */\n      add\n        /* \"#utility.yul\":5648:5703   */\n      mstore\n        /* \"#utility.yul\":5531:5710   */\n      pop\n      jump\t// out\n        /* \"#utility.yul\":5716:6082   */\n    tag_85:\n        /* \"#utility.yul\":5858:5861   */\n      0x00\n        /* \"#utility.yul\":5879:5946   */\n      tag_154\n        /* \"#utility.yul\":5943:5945   */\n      0x1d\n        /* \"#utility.yul\":5938:5941   */\n      dup4\n        /* \"#utility.yul\":5879:5946   */\n      tag_81\n      jump\t// in\n    tag_154:\n        /* \"#utility.yul\":5872:5946   */\n      swap2\n      pop\n        /* \"#utility.yul\":5955:6048   */\n      tag_155\n        /* \"#utility.yul\":6044:6047   */\n      dup3\n        /* \"#utility.yul\":5955:6048   */\n      tag_84\n      jump\t// in\n    tag_155:\n        /* \"#utility.yul\":6073:6075   */\n      0x20\n        /* \"#utility.yul\":6068:6071   */\n      dup3\n        /* \"#utility.yul\":6064:6076   */\n      add\n        /* \"#utility.yul\":6057:6076   */\n      swap1\n      pop\n        /* \"#utility.yul\":5716:6082   */\n      swap2\n      swap1\n      pop\n      jump\t// out\n        /* \"#utility.yul\":6088:6507   */\n    tag_59:\n        /* \"#utility.yul\":6254:6258   */\n      0x00\n        /* \"#utility.yul\":6292:6294   */\n      0x20\n        /* \"#utility.yul\":6281:6290   */\n      dup3\n        /* \"#utility.yul\":6277:6295   */\n      add\n        /* \"#utility.yul\":6269:6295   */\n      swap1\n      pop\n        /* \"#utility.yul\":6341:6350   */\n      dup2\n        /* \"#utility.yul\":6335:6339   */\n      dup2\n        /* \"#utility.yul\":6331:6351   */\n      sub\n        /* \"#utility.yul\":6327:6328   */\n      0x00\n        /* \"#utility.yul\":6316:6325   */\n      dup4\n        /* \"#utility.yul\":6312:6329   */\n      add\n        /* \"#utility.yul\":6305:6352   */\n      mstore\n        /* \"#utility.yul\":6369:6500   */\n      tag_157\n        /* \"#utility.yul\":6495:6499   */\n      dup2\n        /* \"#utility.yul\":6369:6500   */\n      tag_85\n      jump\t// in\n    tag_157:\n        /* \"#utility.yul\":6361:6500   */\n      swap1\n      pop\n        /* \"#utility.yul\":6088:6507   */\n      swap2\n      swap1\n      pop\n      jump\t// out\n        /* \"#utility.yul\":6513:6598   */\n    tag_86:\n        /* \"#utility.yul\":6558:6565   */\n      0x00\n        /* \"#utility.yul\":6587:6592   */\n      dup2\n        /* \"#utility.yul\":6576:6592   */\n      swap1\n      pop\n        /* \"#utility.yul\":6513:6598   */\n      swap2\n      swap1\n      pop\n      jump\t// out\n        /* \"#utility.yul\":6604:6664   */\n    tag_87:\n        /* \"#utility.yul\":6632:6635   */\n      0x00\n        /* \"#utility.yul\":6653:6658   */\n      dup2\n        /* \"#utility.yul\":6646:6658   */\n      swap1\n      pop\n        /* \"#utility.yul\":6604:6664   */\n      swap2\n      swap1\n      pop\n      jump\t// out\n        /* \"#utility.yul\":6670:6828   */\n    tag_88:\n        /* \"#utility.yul\":6728:6737   */\n      0x00\n        /* \"#utility.yul\":6761:6822   */\n      tag_161\n        /* \"#utility.yul\":6779:6821   */\n      tag_162\n        /* \"#utility.yul\":6788:6820   */\n      tag_163\n        /* \"#utility.yul\":6814:6819   */\n      dup5\n        /* \"#utility.yul\":6788:6820   */\n      tag_86\n      jump\t// in\n    tag_163:\n        /* \"#utility.yul\":6779:6821   */\n      tag_87\n      jump\t// in\n    tag_162:\n        /* \"#utility.yul\":6761:6822   */\n      tag_66\n      jump\t// in\n    tag_161:\n        /* \"#utility.yul\":6748:6822   */\n      swap1\n      pop\n        /* \"#utility.yul\":6670:6828   */\n      swap2\n      swap1\n      pop\n      jump\t// out\n        /* \"#utility.yul\":6834:6981   */\n    tag_89:\n        /* \"#utility.yul\":6929:6974   */\n      tag_165\n        /* \"#utility.yul\":6968:6973   */\n      dup2\n        /* \"#utility.yul\":6929:6974   */\n      tag_88\n      jump\t// in\n    tag_165:\n        /* \"#utility.yul\":6924:6927   */\n      dup3\n        /* \"#utility.yul\":6917:6975   */\n      mstore\n        /* \"#utility.yul\":6834:6981   */\n      pop\n      pop\n      jump\t// out\n        /* \"#utility.yul\":6987:8016   */\n    tag_61:\n        /* \"#utility.yul\":7292:7296   */\n      0x00\n        /* \"#utility.yul\":7330:7333   */\n      0x0100\n        /* \"#utility.yul\":7319:7328   */\n      dup3\n        /* \"#utility.yul\":7315:7334   */\n      add\n        /* \"#utility.yul\":7307:7334   */\n      swap1\n      pop\n        /* \"#utility.yul\":7344:7415   */\n      tag_167\n        /* \"#utility.yul\":7412:7413   */\n      0x00\n        /* \"#utility.yul\":7401:7410   */\n      dup4\n        /* \"#utility.yul\":7397:7414   */\n      add\n        /* \"#utility.yul\":7388:7394   */\n      dup12\n        /* \"#utility.yul\":7344:7415   */\n      tag_75\n      jump\t// in\n    tag_167:\n        /* \"#utility.yul\":7425:7497   */\n      tag_168\n        /* \"#utility.yul\":7493:7495   */\n      0x20\n        /* \"#utility.yul\":7482:7491   */\n      dup4\n        /* \"#utility.yul\":7478:7496   */\n      add\n        /* \"#utility.yul\":7469:7475   */\n      dup11\n        /* \"#utility.yul\":7425:7497   */\n      tag_75\n      jump\t// in\n    tag_168:\n        /* \"#utility.yul\":7507:7579   */\n      tag_169\n        /* \"#utility.yul\":7575:7577   */\n      0x40\n        /* \"#utility.yul\":7564:7573   */\n      dup4\n        /* \"#utility.yul\":7560:7578   */\n      add\n        /* \"#utility.yul\":7551:7557   */\n      dup10\n        /* \"#utility.yul\":7507:7579   */\n      tag_67\n      jump\t// in\n    tag_169:\n        /* \"#utility.yul\":7589:7661   */\n      tag_170\n        /* \"#utility.yul\":7657:7659   */\n      0x60\n        /* \"#utility.yul\":7646:7655   */\n      dup4\n        /* \"#utility.yul\":7642:7660   */\n      add\n        /* \"#utility.yul\":7633:7639   */\n      dup9\n        /* \"#utility.yul\":7589:7661   */\n      tag_67\n      jump\t// in\n    tag_170:\n        /* \"#utility.yul\":7671:7752   */\n      tag_171\n        /* \"#utility.yul\":7747:7750   */\n      0x80\n        /* \"#utility.yul\":7736:7745   */\n      dup4\n        /* \"#utility.yul\":7732:7751   */\n      add\n        /* \"#utility.yul\":7723:7729   */\n      dup8\n        /* \"#utility.yul\":7671:7752   */\n      tag_89\n      jump\t// in\n    tag_171:\n        /* \"#utility.yul\":7762:7843   */\n      tag_172\n        /* \"#utility.yul\":7838:7841   */\n      0xa0\n        /* \"#utility.yul\":7827:7836   */\n      dup4\n        /* \"#utility.yul\":7823:7842   */\n      add\n        /* \"#utility.yul\":7814:7820   */\n      dup7\n        /* \"#utility.yul\":7762:7843   */\n      tag_89\n      jump\t// in\n    tag_172:\n        /* \"#utility.yul\":7853:7926   */\n      tag_173\n        /* \"#utility.yul\":7921:7924   */\n      0xc0\n        /* \"#utility.yul\":7910:7919   */\n      dup4\n        /* \"#utility.yul\":7906:7925   */\n      add\n        /* \"#utility.yul\":7897:7903   */\n      dup6\n        /* \"#utility.yul\":7853:7926   */\n      tag_75\n      jump\t// in\n    tag_173:\n        /* \"#utility.yul\":7936:8009   */\n      tag_174\n        /* \"#utility.yul\":8004:8007   */\n      0xe0\n        /* \"#utility.yul\":7993:8002   */\n      dup4\n        /* \"#utility.yul\":7989:8008   */\n      add\n        /* \"#utility.yul\":7980:7986   */\n      dup5\n        /* \"#utility.yul\":7936:8009   */\n      tag_67\n      jump\t// in\n    tag_174:\n        /* \"#utility.yul\":6987:8016   */\n      swap10\n      swap9\n      pop\n      pop\n      pop\n      pop\n      pop\n      pop\n      pop\n      pop\n      pop\n      jump\t// out\n        /* \"#utility.yul\":8022:8165   */\n    tag_90:\n        /* \"#utility.yul\":8079:8084   */\n      0x00\n        /* \"#utility.yul\":8110:8116   */\n      dup2\n        /* \"#utility.yul\":8104:8117   */\n      mload\n        /* \"#utility.yul\":8095:8117   */\n      swap1\n      pop\n        /* \"#utility.yul\":8126:8159   */\n      tag_176\n        /* \"#utility.yul\":8153:8158   */\n      dup2\n        /* \"#utility.yul\":8126:8159   */\n      tag_71\n      jump\t// in\n    tag_176:\n        /* \"#utility.yul\":8022:8165   */\n      swap3\n      swap2\n      pop\n      pop\n      jump\t// out\n        /* \"#utility.yul\":8171:8834   */\n    tag_65:\n        /* \"#utility.yul\":8259:8265   */\n      0x00\n        /* \"#utility.yul\":8267:8273   */\n      0x00\n        /* \"#utility.yul\":8275:8281   */\n      0x00\n        /* \"#utility.yul\":8324:8326   */\n      0x60\n        /* \"#utility.yul\":8312:8321   */\n      dup5\n        /* \"#utility.yul\":8303:8310   */\n      dup7\n        /* \"#utility.yul\":8299:8322   */\n      sub\n        /* \"#utility.yul\":8295:8327   */\n      slt\n        /* \"#utility.yul\":8292:8411   */\n      iszero\n      tag_178\n      jumpi\n        /* \"#utility.yul\":8330:8409   */\n      tag_179\n      tag_69\n      jump\t// in\n    tag_179:\n        /* \"#utility.yul\":8292:8411   */\n    tag_178:\n        /* \"#utility.yul\":8450:8451   */\n      0x00\n        /* \"#utility.yul\":8475:8539   */\n      tag_180\n        /* \"#utility.yul\":8531:8538   */\n      dup7\n        /* \"#utility.yul\":8522:8528   */\n      dup3\n        /* \"#utility.yul\":8511:8520   */\n      dup8\n        /* \"#utility.yul\":8507:8529   */\n      add\n        /* \"#utility.yul\":8475:8539   */\n      tag_90\n      jump\t// in\n    tag_180:\n        /* \"#utility.yul\":8465:8539   */\n      swap4\n      pop\n        /* \"#utility.yul\":8421:8549   */\n      pop\n        /* \"#utility.yul\":8588:8590   */\n      0x20\n        /* \"#utility.yul\":8614:8678   */\n      tag_181\n        /* \"#utility.yul\":8670:8677   */\n      dup7\n        /* \"#utility.yul\":8661:8667   */\n      dup3\n        /* \"#utility.yul\":8650:8659   */\n      dup8\n        /* \"#utility.yul\":8646:8668   */\n      add\n        /* \"#utility.yul\":8614:8678   */\n      tag_90\n      jump\t// in\n    tag_181:\n        /* \"#utility.yul\":8604:8678   */\n      swap3\n      pop\n        /* \"#utility.yul\":8559:8688   */\n      pop\n        /* \"#utility.yul\":8727:8729   */\n      0x40\n        /* \"#utility.yul\":8753:8817   */\n      tag_182\n        /* \"#utility.yul\":8809:8816   */\n      dup7\n        /* \"#utility.yul\":8800:8806   */\n      dup3\n        /* \"#utility.yul\":8789:8798   */\n      dup8\n        /* \"#utility.yul\":8785:8807   */\n      add\n        /* \"#utility.yul\":8753:8817   */\n      tag_90\n      jump\t// in\n    tag_182:\n        /* \"#utility.yul\":8743:8817   */\n      swap2\n      pop\n        /* \"#utility.yul\":8698:8827   */\n      pop\n        /* \"#utility.yul\":8171:8834   */\n      swap3\n      pop\n      swap3\n      pop\n      swap3\n      jump\t// out\n\n    auxdata: 0xa2646970667358221220b59175e19f90ec2ddd53c23a9e8d5ca890d8588bc8e4f1307487033e5571184464736f6c634300081b0033\n}\n",
				"bytecode": {
					"linkReferences": {},
					"object": "6080604052600a600455670de0b6b3a7640000600555348015610020575f5ffd5b50604051610bc9380380610bc983398181016040528101906100429190610126565b8060025f6101000a81548173ffffffffffffffffffffffffffffffffffffffff021916908373ffffffffffffffffffffffffffffffffffffffff1602179055508060035f6101000a81548173ffffffffffffffffffffffffffffffffffffffff021916908373ffffffffffffffffffffffffffffffffffffffff16021790555050610151565b5f5ffd5b5f73ffffffffffffffffffffffffffffffffffffffff82169050919050565b5f6100f5826100cc565b9050919050565b610105816100eb565b811461010f575f5ffd5b50565b5f81519050610120816100fc565b92915050565b5f6020828403121561013b5761013a6100c8565b5b5f61014884828501610112565b91505092915050565b610a6b8061015e5f395ff3fe608060405234801561000f575f5ffd5b5060043610610086575f3560e01c8063a87430ba11610059578063a87430ba146100fe578063b4054b4414610130578063cf6c62ea1461014e578063f4f06c971461016a57610086565b80630543fe371461008a57806329c9e746146100a857806364eb1f30146100c457806397f81a75146100ce575b5f5ffd5b610092610188565b60405161009f9190610601565b60405180910390f35b6100c260048036038101906100bd9190610648565b61018e565b005b6100cc610329565b005b6100e860048036038101906100e39190610648565b610416565b6040516100f591906106b2565b60405180910390f35b610118600480360381019061011391906106f5565b610451565b6040516101279392919061073a565b60405180910390f35b610138610482565b60405161014591906106b2565b60405180910390f35b6101686004803603810190610163919061076f565b6104a7565b005b6101726105e3565b60405161017f9190610601565b60405180910390f35b60045481565b60015f5f3373ffffffffffffffffffffffffffffffffffffffff1673ffffffffffffffffffffffffffffffffffffffff1681526020019081526020015f205f015f8282546101dc9190610800565b92505081905550805f5f3373ffffffffffffffffffffffffffffffffffffffff1673ffffffffffffffffffffffffffffffffffffffff1681526020019081526020015f206001015f8282546102319190610800565b925050819055506004545f5f3373ffffffffffffffffffffffffffffffffffffffff1673ffffffffffffffffffffffffffffffffffffffff1681526020019081526020015f205f0154101580156102c957506005545f5f3373ffffffffffffffffffffffffffffffffffffffff1673ffffffffffffffffffffffffffffffffffffffff1681526020019081526020015f206001015410155b156103265760015f5f3373ffffffffffffffffffffffffffffffffffffffff1673ffffffffffffffffffffffffffffffffffffffff1681526020019081526020015f206002015f6101000a81548160ff0219169083151502179055505b50565b5f5f3373ffffffffffffffffffffffffffffffffffffffff1673ffffffffffffffffffffffffffffffffffffffff1681526020019081526020015f206002015f9054906101000a900460ff166103b4576040517f08c379a00000000000000000000000000000000000000000000000000000000081526004016103ab9061088d565b60405180910390fd5b600133908060018154018082558091505060019003905f5260205f20015f9091909190916101000a81548173ffffffffffffffffffffffffffffffffffffffff021916908373ffffffffffffffffffffffffffffffffffffffff160217905550565b60018181548110610425575f80fd5b905f5260205f20015f915054906101000a900473ffffffffffffffffffffffffffffffffffffffff1681565b5f602052805f5260405f205f91509050805f015490806001015490806002015f9054906101000a900460ff16905083565b60025f9054906101000a900473ffffffffffffffffffffffffffffffffffffffff1681565b5f5f3373ffffffffffffffffffffffffffffffffffffffff1673ffffffffffffffffffffffffffffffffffffffff1681526020019081526020015f206002015f9054906101000a900460ff16610532576040517f08c379a0000000000000000000000000000000000000000000000000000000008152600401610529906108f5565b60405180910390fd5b60035f9054906101000a900473ffffffffffffffffffffffffffffffffffffffff1673ffffffffffffffffffffffffffffffffffffffff1663e8e33700858585855f5f33426040518963ffffffff1660e01b815260040161059a989796959493929190610955565b6060604051808303815f875af11580156105b6573d5f5f3e3d5ffd5b505050506040513d601f19601f820116820180604052508101906105da91906109e5565b50505050505050565b60055481565b5f819050919050565b6105fb816105e9565b82525050565b5f6020820190506106145f8301846105f2565b92915050565b5f5ffd5b610627816105e9565b8114610631575f5ffd5b50565b5f813590506106428161061e565b92915050565b5f6020828403121561065d5761065c61061a565b5b5f61066a84828501610634565b91505092915050565b5f73ffffffffffffffffffffffffffffffffffffffff82169050919050565b5f61069c82610673565b9050919050565b6106ac81610692565b82525050565b5f6020820190506106c55f8301846106a3565b92915050565b6106d481610692565b81146106de575f5ffd5b50565b5f813590506106ef816106cb565b92915050565b5f6020828403121561070a5761070961061a565b5b5f610717848285016106e1565b91505092915050565b5f8115159050919050565b61073481610720565b82525050565b5f60608201905061074d5f8301866105f2565b61075a60208301856105f2565b610767604083018461072b565b949350505050565b5f5f5f5f608085870312156107875761078661061a565b5b5f610794878288016106e1565b94505060206107a5878288016106e1565b93505060406107b687828801610634565b92505060606107c787828801610634565b91505092959194509250565b7f4e487b71000000000000000000000000000000000000000000000000000000005f52601160045260245ffd5b5f61080a826105e9565b9150610815836105e9565b925082820190508082111561082d5761082c6107d3565b5b92915050565b5f82825260208201905092915050565b7f4e6f7420656c696769626c6520666f72206578636c757369766520706f6f6c005f82015250565b5f610877601f83610833565b915061088282610843565b602082019050919050565b5f6020820190508181035f8301526108a48161086b565b9050919050565b7f4e6f7420656c696769626c6520746f20616464206c69717569646974790000005f82015250565b5f6108df601d83610833565b91506108ea826108ab565b602082019050919050565b5f6020820190508181035f83015261090c816108d3565b9050919050565b5f819050919050565b5f819050919050565b5f61093f61093a61093584610913565b61091c565b6105e9565b9050919050565b61094f81610925565b82525050565b5f610100820190506109695f83018b6106a3565b610976602083018a6106a3565b61098360408301896105f2565b61099060608301886105f2565b61099d6080830187610946565b6109aa60a0830186610946565b6109b760c08301856106a3565b6109c460e08301846105f2565b9998505050505050505050565b5f815190506109df8161061e565b92915050565b5f5f5f606084860312156109fc576109fb61061a565b5b5f610a09868287016109d1565b9350506020610a1a868287016109d1565b9250506040610a2b868287016109d1565b915050925092509256fea2646970667358221220b59175e19f90ec2ddd53c23a9e8d5ca890d8588bc8e4f1307487033e5571184464736f6c634300081b0033",
					"opcodes": "PUSH1 0x80 PUSH1 0x40 MSTORE PUSH1 0xA PUSH1 0x4 SSTORE PUSH8 0xDE0B6B3A7640000 PUSH1 0x5 SSTORE CALLVALUE DUP1 ISZERO PUSH2 0x20 JUMPI PUSH0 PUSH0 REVERT JUMPDEST POP PUSH1 0x40 MLOAD PUSH2 0xBC9 CODESIZE SUB DUP1 PUSH2 0xBC9 DUP4 CODECOPY DUP2 DUP2 ADD PUSH1 0x40 MSTORE DUP2 ADD SWAP1 PUSH2 0x42 SWAP2 SWAP1 PUSH2 0x126 JUMP JUMPDEST DUP1 PUSH1 0x2 PUSH0 PUSH2 0x100 EXP DUP2 SLOAD DUP2 PUSH20 0xFFFFFFFFFFFFFFFFFFFFFFFFFFFFFFFFFFFFFFFF MUL NOT AND SWAP1 DUP4 PUSH20 0xFFFFFFFFFFFFFFFFFFFFFFFFFFFFFFFFFFFFFFFF AND MUL OR SWAP1 SSTORE POP DUP1 PUSH1 0x3 PUSH0 PUSH2 0x100 EXP DUP2 SLOAD DUP2 PUSH20 0xFFFFFFFFFFFFFFFFFFFFFFFFFFFFFFFFFFFFFFFF MUL NOT AND SWAP1 DUP4 PUSH20 0xFFFFFFFFFFFFFFFFFFFFFFFFFFFFFFFFFFFFFFFF AND MUL OR SWAP1 SSTORE POP POP PUSH2 0x151 JUMP JUMPDEST PUSH0 PUSH0 REVERT JUMPDEST PUSH0 PUSH20 0xFFFFFFFFFFFFFFFFFFFFFFFFFFFFFFFFFFFFFFFF DUP3 AND SWAP1 POP SWAP2 SWAP1 POP JUMP JUMPDEST PUSH0 PUSH2 0xF5 DUP3 PUSH2 0xCC JUMP JUMPDEST SWAP1 POP SWAP2 SWAP1 POP JUMP JUMPDEST PUSH2 0x105 DUP2 PUSH2 0xEB JUMP JUMPDEST DUP2 EQ PUSH2 0x10F JUMPI PUSH0 PUSH0 REVERT JUMPDEST POP JUMP JUMPDEST PUSH0 DUP2 MLOAD SWAP1 POP PUSH2 0x120 DUP2 PUSH2 0xFC JUMP JUMPDEST SWAP3 SWAP2 POP POP JUMP JUMPDEST PUSH0 PUSH1 0x20 DUP3 DUP5 SUB SLT ISZERO PUSH2 0x13B JUMPI PUSH2 0x13A PUSH2 0xC8 JUMP JUMPDEST JUMPDEST PUSH0 PUSH2 0x148 DUP5 DUP3 DUP6 ADD PUSH2 0x112 JUMP JUMPDEST SWAP2 POP POP SWAP3 SWAP2 POP POP JUMP JUMPDEST PUSH2 0xA6B DUP1 PUSH2 0x15E PUSH0 CODECOPY PUSH0 RETURN INVALID PUSH1 0x80 PUSH1 0x40 MSTORE CALLVALUE DUP1 ISZERO PUSH2 0xF JUMPI PUSH0 PUSH0 REVERT JUMPDEST POP PUSH1 0x4 CALLDATASIZE LT PUSH2 0x86 JUMPI PUSH0 CALLDATALOAD PUSH1 0xE0 SHR DUP1 PUSH4 0xA87430BA GT PUSH2 0x59 JUMPI DUP1 PUSH4 0xA87430BA EQ PUSH2 0xFE JUMPI DUP1 PUSH4 0xB4054B44 EQ PUSH2 0x130 JUMPI DUP1 PUSH4 0xCF6C62EA EQ PUSH2 0x14E JUMPI DUP1 PUSH4 0xF4F06C97 EQ PUSH2 0x16A JUMPI PUSH2 0x86 JUMP JUMPDEST DUP1 PUSH4 0x543FE37 EQ PUSH2 0x8A JUMPI DUP1 PUSH4 0x29C9E746 EQ PUSH2 0xA8 JUMPI DUP1 PUSH4 0x64EB1F30 EQ PUSH2 0xC4 JUMPI DUP1 PUSH4 0x97F81A75 EQ PUSH2 0xCE JUMPI JUMPDEST PUSH0 PUSH0 REVERT JUMPDEST PUSH2 0x92 PUSH2 0x188 JUMP JUMPDEST PUSH1 0x40 MLOAD PUSH2 0x9F SWAP2 SWAP1 PUSH2 0x601 JUMP JUMPDEST PUSH1 0x40 MLOAD DUP1 SWAP2 SUB SWAP1 RETURN JUMPDEST PUSH2 0xC2 PUSH1 0x4 DUP1 CALLDATASIZE SUB DUP2 ADD SWAP1 PUSH2 0xBD SWAP2 SWAP1 PUSH2 0x648 JUMP JUMPDEST PUSH2 0x18E JUMP JUMPDEST STOP JUMPDEST PUSH2 0xCC PUSH2 0x329 JUMP JUMPDEST STOP JUMPDEST PUSH2 0xE8 PUSH1 0x4 DUP1 CALLDATASIZE SUB DUP2 ADD SWAP1 PUSH2 0xE3 SWAP2 SWAP1 PUSH2 0x648 JUMP JUMPDEST PUSH2 0x416 JUMP JUMPDEST PUSH1 0x40 MLOAD PUSH2 0xF5 SWAP2 SWAP1 PUSH2 0x6B2 JUMP JUMPDEST PUSH1 0x40 MLOAD DUP1 SWAP2 SUB SWAP1 RETURN JUMPDEST PUSH2 0x118 PUSH1 0x4 DUP1 CALLDATASIZE SUB DUP2 ADD SWAP1 PUSH2 0x113 SWAP2 SWAP1 PUSH2 0x6F5 JUMP JUMPDEST PUSH2 0x451 JUMP JUMPDEST PUSH1 0x40 MLOAD PUSH2 0x127 SWAP4 SWAP3 SWAP2 SWAP1 PUSH2 0x73A JUMP JUMPDEST PUSH1 0x40 MLOAD DUP1 SWAP2 SUB SWAP1 RETURN JUMPDEST PUSH2 0x138 PUSH2 0x482 JUMP JUMPDEST PUSH1 0x40 MLOAD PUSH2 0x145 SWAP2 SWAP1 PUSH2 0x6B2 JUMP JUMPDEST PUSH1 0x40 MLOAD DUP1 SWAP2 SUB SWAP1 RETURN JUMPDEST PUSH2 0x168 PUSH1 0x4 DUP1 CALLDATASIZE SUB DUP2 ADD SWAP1 PUSH2 0x163 SWAP2 SWAP1 PUSH2 0x76F JUMP JUMPDEST PUSH2 0x4A7 JUMP JUMPDEST STOP JUMPDEST PUSH2 0x172 PUSH2 0x5E3 JUMP JUMPDEST PUSH1 0x40 MLOAD PUSH2 0x17F SWAP2 SWAP1 PUSH2 0x601 JUMP JUMPDEST PUSH1 0x40 MLOAD DUP1 SWAP2 SUB SWAP1 RETURN JUMPDEST PUSH1 0x4 SLOAD DUP2 JUMP JUMPDEST PUSH1 0x1 PUSH0 PUSH0 CALLER PUSH20 0xFFFFFFFFFFFFFFFFFFFFFFFFFFFFFFFFFFFFFFFF AND PUSH20 0xFFFFFFFFFFFFFFFFFFFFFFFFFFFFFFFFFFFFFFFF AND DUP2 MSTORE PUSH1 0x20 ADD SWAP1 DUP2 MSTORE PUSH1 0x20 ADD PUSH0 KECCAK256 PUSH0 ADD PUSH0 DUP3 DUP3 SLOAD PUSH2 0x1DC SWAP2 SWAP1 PUSH2 0x800 JUMP JUMPDEST SWAP3 POP POP DUP2 SWAP1 SSTORE POP DUP1 PUSH0 PUSH0 CALLER PUSH20 0xFFFFFFFFFFFFFFFFFFFFFFFFFFFFFFFFFFFFFFFF AND PUSH20 0xFFFFFFFFFFFFFFFFFFFFFFFFFFFFFFFFFFFFFFFF AND DUP2 MSTORE PUSH1 0x20 ADD SWAP1 DUP2 MSTORE PUSH1 0x20 ADD PUSH0 KECCAK256 PUSH1 0x1 ADD PUSH0 DUP3 DUP3 SLOAD PUSH2 0x231 SWAP2 SWAP1 PUSH2 0x800 JUMP JUMPDEST SWAP3 POP POP DUP2 SWAP1 SSTORE POP PUSH1 0x4 SLOAD PUSH0 PUSH0 CALLER PUSH20 0xFFFFFFFFFFFFFFFFFFFFFFFFFFFFFFFFFFFFFFFF AND PUSH20 0xFFFFFFFFFFFFFFFFFFFFFFFFFFFFFFFFFFFFFFFF AND DUP2 MSTORE PUSH1 0x20 ADD SWAP1 DUP2 MSTORE PUSH1 0x20 ADD PUSH0 KECCAK256 PUSH0 ADD SLOAD LT ISZERO DUP1 ISZERO PUSH2 0x2C9 JUMPI POP PUSH1 0x5 SLOAD PUSH0 PUSH0 CALLER PUSH20 0xFFFFFFFFFFFFFFFFFFFFFFFFFFFFFFFFFFFFFFFF AND PUSH20 0xFFFFFFFFFFFFFFFFFFFFFFFFFFFFFFFFFFFFFFFF AND DUP2 MSTORE PUSH1 0x20 ADD SWAP1 DUP2 MSTORE PUSH1 0x20 ADD PUSH0 KECCAK256 PUSH1 0x1 ADD SLOAD LT ISZERO JUMPDEST ISZERO PUSH2 0x326 JUMPI PUSH1 0x1 PUSH0 PUSH0 CALLER PUSH20 0xFFFFFFFFFFFFFFFFFFFFFFFFFFFFFFFFFFFFFFFF AND PUSH20 0xFFFFFFFFFFFFFFFFFFFFFFFFFFFFFFFFFFFFFFFF AND DUP2 MSTORE PUSH1 0x20 ADD SWAP1 DUP2 MSTORE PUSH1 0x20 ADD PUSH0 KECCAK256 PUSH1 0x2 ADD PUSH0 PUSH2 0x100 EXP DUP2 SLOAD DUP2 PUSH1 0xFF MUL NOT AND SWAP1 DUP4 ISZERO ISZERO MUL OR SWAP1 SSTORE POP JUMPDEST POP JUMP JUMPDEST PUSH0 PUSH0 CALLER PUSH20 0xFFFFFFFFFFFFFFFFFFFFFFFFFFFFFFFFFFFFFFFF AND PUSH20 0xFFFFFFFFFFFFFFFFFFFFFFFFFFFFFFFFFFFFFFFF AND DUP2 MSTORE PUSH1 0x20 ADD SWAP1 DUP2 MSTORE PUSH1 0x20 ADD PUSH0 KECCAK256 PUSH1 0x2 ADD PUSH0 SWAP1 SLOAD SWAP1 PUSH2 0x100 EXP SWAP1 DIV PUSH1 0xFF AND PUSH2 0x3B4 JUMPI PUSH1 0x40 MLOAD PUSH32 0x8C379A000000000000000000000000000000000000000000000000000000000 DUP2 MSTORE PUSH1 0x4 ADD PUSH2 0x3AB SWAP1 PUSH2 0x88D JUMP JUMPDEST PUSH1 0x40 MLOAD DUP1 SWAP2 SUB SWAP1 REVERT JUMPDEST PUSH1 0x1 CALLER SWAP1 DUP1 PUSH1 0x1 DUP2 SLOAD ADD DUP1 DUP3 SSTORE DUP1 SWAP2 POP POP PUSH1 0x1 SWAP1 SUB SWAP1 PUSH0 MSTORE PUSH1 0x20 PUSH0 KECCAK256 ADD PUSH0 SWAP1 SWAP2 SWAP1 SWAP2 SWAP1 SWAP2 PUSH2 0x100 EXP DUP2 SLOAD DUP2 PUSH20 0xFFFFFFFFFFFFFFFFFFFFFFFFFFFFFFFFFFFFFFFF MUL NOT AND SWAP1 DUP4 PUSH20 0xFFFFFFFFFFFFFFFFFFFFFFFFFFFFFFFFFFFFFFFF AND MUL OR SWAP1 SSTORE POP JUMP JUMPDEST PUSH1 0x1 DUP2 DUP2 SLOAD DUP2 LT PUSH2 0x425 JUMPI PUSH0 DUP1 REVERT JUMPDEST SWAP1 PUSH0 MSTORE PUSH1 0x20 PUSH0 KECCAK256 ADD PUSH0 SWAP2 POP SLOAD SWAP1 PUSH2 0x100 EXP SWAP1 DIV PUSH20 0xFFFFFFFFFFFFFFFFFFFFFFFFFFFFFFFFFFFFFFFF AND DUP2 JUMP JUMPDEST PUSH0 PUSH1 0x20 MSTORE DUP1 PUSH0 MSTORE PUSH1 0x40 PUSH0 KECCAK256 PUSH0 SWAP2 POP SWAP1 POP DUP1 PUSH0 ADD SLOAD SWAP1 DUP1 PUSH1 0x1 ADD SLOAD SWAP1 DUP1 PUSH1 0x2 ADD PUSH0 SWAP1 SLOAD SWAP1 PUSH2 0x100 EXP SWAP1 DIV PUSH1 0xFF AND SWAP1 POP DUP4 JUMP JUMPDEST PUSH1 0x2 PUSH0 SWAP1 SLOAD SWAP1 PUSH2 0x100 EXP SWAP1 DIV PUSH20 0xFFFFFFFFFFFFFFFFFFFFFFFFFFFFFFFFFFFFFFFF AND DUP2 JUMP JUMPDEST PUSH0 PUSH0 CALLER PUSH20 0xFFFFFFFFFFFFFFFFFFFFFFFFFFFFFFFFFFFFFFFF AND PUSH20 0xFFFFFFFFFFFFFFFFFFFFFFFFFFFFFFFFFFFFFFFF AND DUP2 MSTORE PUSH1 0x20 ADD SWAP1 DUP2 MSTORE PUSH1 0x20 ADD PUSH0 KECCAK256 PUSH1 0x2 ADD PUSH0 SWAP1 SLOAD SWAP1 PUSH2 0x100 EXP SWAP1 DIV PUSH1 0xFF AND PUSH2 0x532 JUMPI PUSH1 0x40 MLOAD PUSH32 0x8C379A000000000000000000000000000000000000000000000000000000000 DUP2 MSTORE PUSH1 0x4 ADD PUSH2 0x529 SWAP1 PUSH2 0x8F5 JUMP JUMPDEST PUSH1 0x40 MLOAD DUP1 SWAP2 SUB SWAP1 REVERT JUMPDEST PUSH1 0x3 PUSH0 SWAP1 SLOAD SWAP1 PUSH2 0x100 EXP SWAP1 DIV PUSH20 0xFFFFFFFFFFFFFFFFFFFFFFFFFFFFFFFFFFFFFFFF AND PUSH20 0xFFFFFFFFFFFFFFFFFFFFFFFFFFFFFFFFFFFFFFFF AND PUSH4 0xE8E33700 DUP6 DUP6 DUP6 DUP6 PUSH0 PUSH0 CALLER TIMESTAMP PUSH1 0x40 MLOAD DUP10 PUSH4 0xFFFFFFFF AND PUSH1 0xE0 SHL DUP2 MSTORE PUSH1 0x4 ADD PUSH2 0x59A SWAP9 SWAP8 SWAP7 SWAP6 SWAP5 SWAP4 SWAP3 SWAP2 SWAP1 PUSH2 0x955 JUMP JUMPDEST PUSH1 0x60 PUSH1 0x40 MLOAD DUP1 DUP4 SUB DUP2 PUSH0 DUP8 GAS CALL ISZERO DUP1 ISZERO PUSH2 0x5B6 JUMPI RETURNDATASIZE PUSH0 PUSH0 RETURNDATACOPY RETURNDATASIZE PUSH0 REVERT JUMPDEST POP POP POP POP PUSH1 0x40 MLOAD RETURNDATASIZE PUSH1 0x1F NOT PUSH1 0x1F DUP3 ADD AND DUP3 ADD DUP1 PUSH1 0x40 MSTORE POP DUP2 ADD SWAP1 PUSH2 0x5DA SWAP2 SWAP1 PUSH2 0x9E5 JUMP JUMPDEST POP POP POP POP POP POP POP JUMP JUMPDEST PUSH1 0x5 SLOAD DUP2 JUMP JUMPDEST PUSH0 DUP2 SWAP1 POP SWAP2 SWAP1 POP JUMP JUMPDEST PUSH2 0x5FB DUP2 PUSH2 0x5E9 JUMP JUMPDEST DUP3 MSTORE POP POP JUMP JUMPDEST PUSH0 PUSH1 0x20 DUP3 ADD SWAP1 POP PUSH2 0x614 PUSH0 DUP4 ADD DUP5 PUSH2 0x5F2 JUMP JUMPDEST SWAP3 SWAP2 POP POP JUMP JUMPDEST PUSH0 PUSH0 REVERT JUMPDEST PUSH2 0x627 DUP2 PUSH2 0x5E9 JUMP JUMPDEST DUP2 EQ PUSH2 0x631 JUMPI PUSH0 PUSH0 REVERT JUMPDEST POP JUMP JUMPDEST PUSH0 DUP2 CALLDATALOAD SWAP1 POP PUSH2 0x642 DUP2 PUSH2 0x61E JUMP JUMPDEST SWAP3 SWAP2 POP POP JUMP JUMPDEST PUSH0 PUSH1 0x20 DUP3 DUP5 SUB SLT ISZERO PUSH2 0x65D JUMPI PUSH2 0x65C PUSH2 0x61A JUMP JUMPDEST JUMPDEST PUSH0 PUSH2 0x66A DUP5 DUP3 DUP6 ADD PUSH2 0x634 JUMP JUMPDEST SWAP2 POP POP SWAP3 SWAP2 POP POP JUMP JUMPDEST PUSH0 PUSH20 0xFFFFFFFFFFFFFFFFFFFFFFFFFFFFFFFFFFFFFFFF DUP3 AND SWAP1 POP SWAP2 SWAP1 POP JUMP JUMPDEST PUSH0 PUSH2 0x69C DUP3 PUSH2 0x673 JUMP JUMPDEST SWAP1 POP SWAP2 SWAP1 POP JUMP JUMPDEST PUSH2 0x6AC DUP2 PUSH2 0x692 JUMP JUMPDEST DUP3 MSTORE POP POP JUMP JUMPDEST PUSH0 PUSH1 0x20 DUP3 ADD SWAP1 POP PUSH2 0x6C5 PUSH0 DUP4 ADD DUP5 PUSH2 0x6A3 JUMP JUMPDEST SWAP3 SWAP2 POP POP JUMP JUMPDEST PUSH2 0x6D4 DUP2 PUSH2 0x692 JUMP JUMPDEST DUP2 EQ PUSH2 0x6DE JUMPI PUSH0 PUSH0 REVERT JUMPDEST POP JUMP JUMPDEST PUSH0 DUP2 CALLDATALOAD SWAP1 POP PUSH2 0x6EF DUP2 PUSH2 0x6CB JUMP JUMPDEST SWAP3 SWAP2 POP POP JUMP JUMPDEST PUSH0 PUSH1 0x20 DUP3 DUP5 SUB SLT ISZERO PUSH2 0x70A JUMPI PUSH2 0x709 PUSH2 0x61A JUMP JUMPDEST JUMPDEST PUSH0 PUSH2 0x717 DUP5 DUP3 DUP6 ADD PUSH2 0x6E1 JUMP JUMPDEST SWAP2 POP POP SWAP3 SWAP2 POP POP JUMP JUMPDEST PUSH0 DUP2 ISZERO ISZERO SWAP1 POP SWAP2 SWAP1 POP JUMP JUMPDEST PUSH2 0x734 DUP2 PUSH2 0x720 JUMP JUMPDEST DUP3 MSTORE POP POP JUMP JUMPDEST PUSH0 PUSH1 0x60 DUP3 ADD SWAP1 POP PUSH2 0x74D PUSH0 DUP4 ADD DUP7 PUSH2 0x5F2 JUMP JUMPDEST PUSH2 0x75A PUSH1 0x20 DUP4 ADD DUP6 PUSH2 0x5F2 JUMP JUMPDEST PUSH2 0x767 PUSH1 0x40 DUP4 ADD DUP5 PUSH2 0x72B JUMP JUMPDEST SWAP5 SWAP4 POP POP POP POP JUMP JUMPDEST PUSH0 PUSH0 PUSH0 PUSH0 PUSH1 0x80 DUP6 DUP8 SUB SLT ISZERO PUSH2 0x787 JUMPI PUSH2 0x786 PUSH2 0x61A JUMP JUMPDEST JUMPDEST PUSH0 PUSH2 0x794 DUP8 DUP3 DUP9 ADD PUSH2 0x6E1 JUMP JUMPDEST SWAP5 POP POP PUSH1 0x20 PUSH2 0x7A5 DUP8 DUP3 DUP9 ADD PUSH2 0x6E1 JUMP JUMPDEST SWAP4 POP POP PUSH1 0x40 PUSH2 0x7B6 DUP8 DUP3 DUP9 ADD PUSH2 0x634 JUMP JUMPDEST SWAP3 POP POP PUSH1 0x60 PUSH2 0x7C7 DUP8 DUP3 DUP9 ADD PUSH2 0x634 JUMP JUMPDEST SWAP2 POP POP SWAP3 SWAP6 SWAP2 SWAP5 POP SWAP3 POP JUMP JUMPDEST PUSH32 0x4E487B7100000000000000000000000000000000000000000000000000000000 PUSH0 MSTORE PUSH1 0x11 PUSH1 0x4 MSTORE PUSH1 0x24 PUSH0 REVERT JUMPDEST PUSH0 PUSH2 0x80A DUP3 PUSH2 0x5E9 JUMP JUMPDEST SWAP2 POP PUSH2 0x815 DUP4 PUSH2 0x5E9 JUMP JUMPDEST SWAP3 POP DUP3 DUP3 ADD SWAP1 POP DUP1 DUP3 GT ISZERO PUSH2 0x82D JUMPI PUSH2 0x82C PUSH2 0x7D3 JUMP JUMPDEST JUMPDEST SWAP3 SWAP2 POP POP JUMP JUMPDEST PUSH0 DUP3 DUP3 MSTORE PUSH1 0x20 DUP3 ADD SWAP1 POP SWAP3 SWAP2 POP POP JUMP JUMPDEST PUSH32 0x4E6F7420656C696769626C6520666F72206578636C757369766520706F6F6C00 PUSH0 DUP3 ADD MSTORE POP JUMP JUMPDEST PUSH0 PUSH2 0x877 PUSH1 0x1F DUP4 PUSH2 0x833 JUMP JUMPDEST SWAP2 POP PUSH2 0x882 DUP3 PUSH2 0x843 JUMP JUMPDEST PUSH1 0x20 DUP3 ADD SWAP1 POP SWAP2 SWAP1 POP JUMP JUMPDEST PUSH0 PUSH1 0x20 DUP3 ADD SWAP1 POP DUP2 DUP2 SUB PUSH0 DUP4 ADD MSTORE PUSH2 0x8A4 DUP2 PUSH2 0x86B JUMP JUMPDEST SWAP1 POP SWAP2 SWAP1 POP JUMP JUMPDEST PUSH32 0x4E6F7420656C696769626C6520746F20616464206C6971756964697479000000 PUSH0 DUP3 ADD MSTORE POP JUMP JUMPDEST PUSH0 PUSH2 0x8DF PUSH1 0x1D DUP4 PUSH2 0x833 JUMP JUMPDEST SWAP2 POP PUSH2 0x8EA DUP3 PUSH2 0x8AB JUMP JUMPDEST PUSH1 0x20 DUP3 ADD SWAP1 POP SWAP2 SWAP1 POP JUMP JUMPDEST PUSH0 PUSH1 0x20 DUP3 ADD SWAP1 POP DUP2 DUP2 SUB PUSH0 DUP4 ADD MSTORE PUSH2 0x90C DUP2 PUSH2 0x8D3 JUMP JUMPDEST SWAP1 POP SWAP2 SWAP1 POP JUMP JUMPDEST PUSH0 DUP2 SWAP1 POP SWAP2 SWAP1 POP JUMP JUMPDEST PUSH0 DUP2 SWAP1 POP SWAP2 SWAP1 POP JUMP JUMPDEST PUSH0 PUSH2 0x93F PUSH2 0x93A PUSH2 0x935 DUP5 PUSH2 0x913 JUMP JUMPDEST PUSH2 0x91C JUMP JUMPDEST PUSH2 0x5E9 JUMP JUMPDEST SWAP1 POP SWAP2 SWAP1 POP JUMP JUMPDEST PUSH2 0x94F DUP2 PUSH2 0x925 JUMP JUMPDEST DUP3 MSTORE POP POP JUMP JUMPDEST PUSH0 PUSH2 0x100 DUP3 ADD SWAP1 POP PUSH2 0x969 PUSH0 DUP4 ADD DUP12 PUSH2 0x6A3 JUMP JUMPDEST PUSH2 0x976 PUSH1 0x20 DUP4 ADD DUP11 PUSH2 0x6A3 JUMP JUMPDEST PUSH2 0x983 PUSH1 0x40 DUP4 ADD DUP10 PUSH2 0x5F2 JUMP JUMPDEST PUSH2 0x990 PUSH1 0x60 DUP4 ADD DUP9 PUSH2 0x5F2 JUMP JUMPDEST PUSH2 0x99D PUSH1 0x80 DUP4 ADD DUP8 PUSH2 0x946 JUMP JUMPDEST PUSH2 0x9AA PUSH1 0xA0 DUP4 ADD DUP7 PUSH2 0x946 JUMP JUMPDEST PUSH2 0x9B7 PUSH1 0xC0 DUP4 ADD DUP6 PUSH2 0x6A3 JUMP JUMPDEST PUSH2 0x9C4 PUSH1 0xE0 DUP4 ADD DUP5 PUSH2 0x5F2 JUMP JUMPDEST SWAP10 SWAP9 POP POP POP POP POP POP POP POP POP JUMP JUMPDEST PUSH0 DUP2 MLOAD SWAP1 POP PUSH2 0x9DF DUP2 PUSH2 0x61E JUMP JUMPDEST SWAP3 SWAP2 POP POP JUMP JUMPDEST PUSH0 PUSH0 PUSH0 PUSH1 0x60 DUP5 DUP7 SUB SLT ISZERO PUSH2 0x9FC JUMPI PUSH2 0x9FB PUSH2 0x61A JUMP JUMPDEST JUMPDEST PUSH0 PUSH2 0xA09 DUP7 DUP3 DUP8 ADD PUSH2 0x9D1 JUMP JUMPDEST SWAP4 POP POP PUSH1 0x20 PUSH2 0xA1A DUP7 DUP3 DUP8 ADD PUSH2 0x9D1 JUMP JUMPDEST SWAP3 POP POP PUSH1 0x40 PUSH2 0xA2B DUP7 DUP3 DUP8 ADD PUSH2 0x9D1 JUMP JUMPDEST SWAP2 POP POP SWAP3 POP SWAP3 POP SWAP3 JUMP INVALID LOG2 PUSH5 0x6970667358 0x22 SLT KECCAK256 0xB5 SWAP2 PUSH22 0xE19F90EC2DDD53C23A9E8D5CA890D8588BC8E4F13074 DUP8 SUB RETURNDATACOPY SSTORE PUSH18 0x184464736F6C634300081B00330000000000 "
				},
				"gasEstimates": {
					"creation": {
						"codeDepositCost": "533400",
						"executionCost": "infinite",
						"totalCost": "infinite"
					},
					"external": {
						"addLiquidity(address,address,uint256,uint256)": "infinite",
						"createExclusivePool()": "51007",
						"exclusivePools(uint256)": "5011",
						"minTradeCount()": "2426",
						"minVolume()": "2491",
						"pancakeRouterAddress()": "2530",
						"registerTrade(uint256)": "infinite",
						"users(address)": "infinite"
					}
				},
				"methodIdentifiers": {
					"addLiquidity(address,address,uint256,uint256)": "cf6c62ea",
					"createExclusivePool()": "64eb1f30",
					"exclusivePools(uint256)": "97f81a75",
					"minTradeCount()": "0543fe37",
					"minVolume()": "f4f06c97",
					"pancakeRouterAddress()": "b4054b44",
					"registerTrade(uint256)": "29c9e746",
					"users(address)": "a87430ba"
				}
			},
			"storageLayout": {
				"storage": [
					{
						"astId": 39,
						"contract": "Hookathon.sol:ExclusiveAccessPools",
						"label": "users",
						"offset": 0,
						"slot": "0",
						"type": "t_mapping(t_address,t_struct(User)34_storage)"
					},
					{
						"astId": 42,
						"contract": "Hookathon.sol:ExclusiveAccessPools",
						"label": "exclusivePools",
						"offset": 0,
						"slot": "1",
						"type": "t_array(t_address)dyn_storage"
					},
					{
						"astId": 44,
						"contract": "Hookathon.sol:ExclusiveAccessPools",
						"label": "pancakeRouterAddress",
						"offset": 0,
						"slot": "2",
						"type": "t_address"
					},
					{
						"astId": 47,
						"contract": "Hookathon.sol:ExclusiveAccessPools",
						"label": "pancakeRouter",
						"offset": 0,
						"slot": "3",
						"type": "t_contract(IPancakeRouter)27"
					},
					{
						"astId": 50,
						"contract": "Hookathon.sol:ExclusiveAccessPools",
						"label": "minTradeCount",
						"offset": 0,
						"slot": "4",
						"type": "t_uint256"
					},
					{
						"astId": 53,
						"contract": "Hookathon.sol:ExclusiveAccessPools",
						"label": "minVolume",
						"offset": 0,
						"slot": "5",
						"type": "t_uint256"
					}
				],
				"types": {
					"t_address": {
						"encoding": "inplace",
						"label": "address",
						"numberOfBytes": "20"
					},
					"t_array(t_address)dyn_storage": {
						"base": "t_address",
						"encoding": "dynamic_array",
						"label": "address[]",
						"numberOfBytes": "32"
					},
					"t_bool": {
						"encoding": "inplace",
						"label": "bool",
						"numberOfBytes": "1"
					},
					"t_contract(IPancakeRouter)27": {
						"encoding": "inplace",
						"label": "contract IPancakeRouter",
						"numberOfBytes": "20"
					},
					"t_mapping(t_address,t_struct(User)34_storage)": {
						"encoding": "mapping",
						"key": "t_address",
						"label": "mapping(address => struct ExclusiveAccessPools.User)",
						"numberOfBytes": "32",
						"value": "t_struct(User)34_storage"
					},
					"t_struct(User)34_storage": {
						"encoding": "inplace",
						"label": "struct ExclusiveAccessPools.User",
						"members": [
							{
								"astId": 29,
								"contract": "Hookathon.sol:ExclusiveAccessPools",
								"label": "tradeCount",
								"offset": 0,
								"slot": "0",
								"type": "t_uint256"
							},
							{
								"astId": 31,
								"contract": "Hookathon.sol:ExclusiveAccessPools",
								"label": "totalVolume",
								"offset": 0,
								"slot": "1",
								"type": "t_uint256"
							},
							{
								"astId": 33,
								"contract": "Hookathon.sol:ExclusiveAccessPools",
								"label": "eligible",
								"offset": 0,
								"slot": "2",
								"type": "t_bool"
							}
						],
						"numberOfBytes": "96"
					},
					"t_uint256": {
						"encoding": "inplace",
						"label": "uint256",
						"numberOfBytes": "32"
					}
				}
			},
			"userdoc": {
				"kind": "user",
				"methods": {},
				"version": 1
			}
		}
	}
}